{
  "contractName": "Presale",
  "abi": [
    {
      "inputs": [
        {
          "internalType": "uint256",
          "name": "_rate",
          "type": "uint256"
        },
        {
          "internalType": "address payable",
          "name": "_wallet",
          "type": "address"
        },
        {
          "internalType": "contract IERC20Metadata",
          "name": "_token",
          "type": "address"
        }
      ],
      "stateMutability": "nonpayable",
      "type": "constructor"
    },
    {
      "anonymous": false,
      "inputs": [
        {
          "indexed": true,
          "internalType": "address",
          "name": "previousOwner",
          "type": "address"
        },
        {
          "indexed": true,
          "internalType": "address",
          "name": "newOwner",
          "type": "address"
        }
      ],
      "name": "OwnershipTransferred",
      "type": "event"
    },
    {
      "anonymous": false,
      "inputs": [
        {
          "indexed": true,
          "internalType": "address",
          "name": "purchaser",
          "type": "address"
        },
        {
          "indexed": false,
          "internalType": "uint256",
          "name": "value",
          "type": "uint256"
        },
        {
          "indexed": false,
          "internalType": "uint256",
          "name": "amount",
          "type": "uint256"
        }
      ],
      "name": "TokensPurchased",
      "type": "event"
    },
    {
      "inputs": [],
      "name": "owner",
      "outputs": [
        {
          "internalType": "address",
          "name": "",
          "type": "address"
        }
      ],
      "stateMutability": "view",
      "type": "function",
      "constant": true
    },
    {
      "inputs": [],
      "name": "renounceOwnership",
      "outputs": [],
      "stateMutability": "nonpayable",
      "type": "function"
    },
    {
      "inputs": [
        {
          "internalType": "address",
          "name": "newOwner",
          "type": "address"
        }
      ],
      "name": "transferOwnership",
      "outputs": [],
      "stateMutability": "nonpayable",
      "type": "function"
    },
    {
      "stateMutability": "payable",
      "type": "receive",
      "payable": true
    },
    {
      "inputs": [],
      "name": "getOwner",
      "outputs": [
        {
          "internalType": "address",
          "name": "",
          "type": "address"
        }
      ],
      "stateMutability": "view",
      "type": "function",
      "constant": true
    },
    {
      "inputs": [],
      "name": "getTotalReceived",
      "outputs": [
        {
          "internalType": "uint256",
          "name": "",
          "type": "uint256"
        }
      ],
      "stateMutability": "view",
      "type": "function",
      "constant": true
    },
    {
      "inputs": [],
      "name": "getTotalContributors",
      "outputs": [
        {
          "internalType": "uint256",
          "name": "",
          "type": "uint256"
        }
      ],
      "stateMutability": "view",
      "type": "function",
      "constant": true
    },
    {
      "inputs": [],
      "name": "getAmountRaised",
      "outputs": [
        {
          "internalType": "uint256",
          "name": "",
          "type": "uint256"
        }
      ],
      "stateMutability": "view",
      "type": "function",
      "constant": true
    },
    {
      "inputs": [],
      "name": "getUserContribution",
      "outputs": [
        {
          "internalType": "uint256",
          "name": "",
          "type": "uint256"
        }
      ],
      "stateMutability": "view",
      "type": "function",
      "constant": true
    },
    {
      "inputs": [],
      "name": "getEndate",
      "outputs": [
        {
          "internalType": "uint256",
          "name": "",
          "type": "uint256"
        }
      ],
      "stateMutability": "view",
      "type": "function",
      "constant": true
    },
    {
      "inputs": [
        {
          "internalType": "uint256",
          "name": "_enddate",
          "type": "uint256"
        }
      ],
      "name": "setEndate",
      "outputs": [],
      "stateMutability": "nonpayable",
      "type": "function"
    },
    {
      "inputs": [
        {
          "internalType": "uint256",
          "name": "_rate",
          "type": "uint256"
        }
      ],
      "name": "setTokenRate",
      "outputs": [],
      "stateMutability": "nonpayable",
      "type": "function"
    },
    {
      "inputs": [],
      "name": "getTokenRate",
      "outputs": [
        {
          "internalType": "uint256",
          "name": "",
          "type": "uint256"
        }
      ],
      "stateMutability": "view",
      "type": "function",
      "constant": true
    },
    {
      "inputs": [],
      "name": "getMinMax",
      "outputs": [
        {
          "internalType": "uint256[]",
          "name": "",
          "type": "uint256[]"
        }
      ],
      "stateMutability": "view",
      "type": "function",
      "constant": true
    },
    {
      "inputs": [
        {
          "internalType": "uint256",
          "name": "_minPurchase",
          "type": "uint256"
        },
        {
          "internalType": "uint256",
          "name": "_purchaseCap",
          "type": "uint256"
        }
      ],
      "name": "setMinMax",
      "outputs": [],
      "stateMutability": "nonpayable",
      "type": "function"
    },
    {
      "inputs": [],
      "name": "getStatus",
      "outputs": [
        {
          "internalType": "bool",
          "name": "",
          "type": "bool"
        }
      ],
      "stateMutability": "view",
      "type": "function",
      "constant": true
    },
    {
      "inputs": [],
      "name": "togglePause",
      "outputs": [
        {
          "internalType": "bool",
          "name": "",
          "type": "bool"
        }
      ],
      "stateMutability": "nonpayable",
      "type": "function"
    },
    {
      "inputs": [],
      "name": "getBalance",
      "outputs": [
        {
          "internalType": "uint256",
          "name": "",
          "type": "uint256"
        }
      ],
      "stateMutability": "view",
      "type": "function",
      "constant": true
    },
    {
      "inputs": [
        {
          "internalType": "address",
          "name": "_wallet",
          "type": "address"
        }
      ],
      "name": "getUnsoldTokens",
      "outputs": [],
      "stateMutability": "nonpayable",
      "type": "function"
    },
    {
      "inputs": [],
      "name": "buyToken",
      "outputs": [],
      "stateMutability": "payable",
      "type": "function",
      "payable": true
    },
    {
      "inputs": [
        {
          "internalType": "uint256",
          "name": "weiVal",
          "type": "uint256"
        }
      ],
      "name": "getTokensPerEth",
      "outputs": [
        {
          "internalType": "uint256",
          "name": "",
          "type": "uint256"
        }
      ],
      "stateMutability": "view",
      "type": "function",
      "constant": true
    }
  ],
  "bytecode": "0x60806040526000600560006101000a81548160ff02191690831515021790555062093a80426200003091906200036e565b60065567016345785d8a000060075568056bc75e2d6310000060085560006009556000600a553480156200006357600080fd5b5060405162002167380380620021678339818101604052810190620000899190620004bf565b620000a96200009d6200026960201b60201c565b6200027160201b60201c565b8260008111620000f0576040517f08c379a0000000000000000000000000000000000000000000000000000000008152600401620000e7906200057c565b60405180910390fd5b600073ffffffffffffffffffffffffffffffffffffffff168373ffffffffffffffffffffffffffffffffffffffff16141562000163576040517f08c379a00000000000000000000000000000000000000000000000000000000081526004016200015a9062000614565b60405180910390fd5b600073ffffffffffffffffffffffffffffffffffffffff168273ffffffffffffffffffffffffffffffffffffffff161415620001d6576040517f08c379a0000000000000000000000000000000000000000000000000000000008152600401620001cd90620006ac565b60405180910390fd5b8360018190555082600360006101000a81548173ffffffffffffffffffffffffffffffffffffffff021916908373ffffffffffffffffffffffffffffffffffffffff16021790555081600260006101000a81548173ffffffffffffffffffffffffffffffffffffffff021916908373ffffffffffffffffffffffffffffffffffffffff16021790555050505050620006ce565b600033905090565b60008060009054906101000a900473ffffffffffffffffffffffffffffffffffffffff169050816000806101000a81548173ffffffffffffffffffffffffffffffffffffffff021916908373ffffffffffffffffffffffffffffffffffffffff1602179055508173ffffffffffffffffffffffffffffffffffffffff168173ffffffffffffffffffffffffffffffffffffffff167f8be0079c531659141344cd1fd0a4f28419497f9722a3daafe3b4186f6b6457e060405160405180910390a35050565b6000819050919050565b7f4e487b7100000000000000000000000000000000000000000000000000000000600052601160045260246000fd5b60006200037b8262000335565b9150620003888362000335565b9250827fffffffffffffffffffffffffffffffffffffffffffffffffffffffffffffffff03821115620003c057620003bf6200033f565b5b828201905092915050565b600080fd5b620003db8162000335565b8114620003e757600080fd5b50565b600081519050620003fb81620003d0565b92915050565b600073ffffffffffffffffffffffffffffffffffffffff82169050919050565b60006200042e8262000401565b9050919050565b620004408162000421565b81146200044c57600080fd5b50565b600081519050620004608162000435565b92915050565b6000620004738262000401565b9050919050565b6000620004878262000466565b9050919050565b62000499816200047a565b8114620004a557600080fd5b50565b600081519050620004b9816200048e565b92915050565b600080600060608486031215620004db57620004da620003cb565b5b6000620004eb86828701620003ea565b9350506020620004fe868287016200044f565b92505060406200051186828701620004a8565b9150509250925092565b600082825260208201905092915050565b7f50726573616c653a2076616c7565206973203000000000000000000000000000600082015250565b6000620005646013836200051b565b915062000571826200052c565b602082019050919050565b60006020820190508181036000830152620005978162000555565b9050919050565b7f50726573616c653a2077616c6c657420697320746865207a65726f206164647260008201527f6573730000000000000000000000000000000000000000000000000000000000602082015250565b6000620005fc6023836200051b565b915062000609826200059e565b604082019050919050565b600060208201905081810360008301526200062f81620005ed565b9050919050565b7f50726573616c653a20746f6b656e20697320746865207a65726f20616464726560008201527f7373000000000000000000000000000000000000000000000000000000000000602082015250565b6000620006946022836200051b565b9150620006a18262000636565b604082019050919050565b60006020820190508181036000830152620006c78162000685565b9050919050565b611a8980620006de6000396000f3fe6080604052600436106101235760003560e01c8063893d20e8116100a0578063a681f95011610064578063a681f95014610395578063a846b6dc146103be578063c4ae3168146103e7578063dc58a56c14610412578063f2fde38b1461043d57610132565b8063893d20e8146102e15780638da5cb5b1461030c5780638daaa88114610337578063a482171914610360578063a538d2871461036a57610132565b80635b19349e116100e75780635b19349e1461022057806361241c281461024b5780636d1af018146102745780636d6a60321461029f578063715018a6146102ca57610132565b80630592a6121461013757806312065fe0146101625780633e2d70041461018d5780634e69d560146101b857806356f0889c146101e357610132565b3661013257610130610466565b005b600080fd5b34801561014357600080fd5b5061014c610828565b60405161015991906111c2565b60405180910390f35b34801561016e57600080fd5b50610177610832565b60405161018491906111c2565b60405180910390f35b34801561019957600080fd5b506101a261083a565b6040516101af91906111c2565b60405180910390f35b3480156101c457600080fd5b506101cd610844565b6040516101da91906111f8565b60405180910390f35b3480156101ef57600080fd5b5061020a60048036038101906102059190611244565b61085b565b60405161021791906111c2565b60405180910390f35b34801561022c57600080fd5b50610235610879565b60405161024291906111c2565b60405180910390f35b34801561025757600080fd5b50610272600480360381019061026d9190611244565b6108c0565b005b34801561028057600080fd5b5061028961098b565b60405161029691906111c2565b60405180910390f35b3480156102ab57600080fd5b506102b4610995565b6040516102c191906111c2565b60405180910390f35b3480156102d657600080fd5b506102df61099f565b005b3480156102ed57600080fd5b506102f6610a27565b60405161030391906112b2565b60405180910390f35b34801561031857600080fd5b50610321610a36565b60405161032e91906112b2565b60405180910390f35b34801561034357600080fd5b5061035e60048036038101906103599190611244565b610a5f565b005b610368610466565b005b34801561037657600080fd5b5061037f610b2a565b60405161038c919061138b565b60405180910390f35b3480156103a157600080fd5b506103bc60048036038101906103b791906113ad565b610bc7565b005b3480156103ca57600080fd5b506103e560048036038101906103e09190611419565b610cf3565b005b3480156103f357600080fd5b506103fc610ef2565b60405161040991906111f8565b60405180910390f35b34801561041e57600080fd5b50610427610faf565b60405161043491906111c2565b60405180910390f35b34801561044957600080fd5b50610464600480360381019061045f9190611419565b610fb9565b005b600034905060011515600560009054906101000a900460ff161515146104c1576040517f08c379a00000000000000000000000000000000000000000000000000000000081526004016104b8906114a3565b60405180910390fd5b600754811015610506576040517f08c379a00000000000000000000000000000000000000000000000000000000081526004016104fd9061150f565b60405180910390fd5b60085461055b82600b60003373ffffffffffffffffffffffffffffffffffffffff1673ffffffffffffffffffffffffffffffffffffffff168152602001908152602001600020546110b190919063ffffffff16565b1061059b576040517f08c379a00000000000000000000000000000000000000000000000000000000081526004016105929061157b565b60405180910390fd5b60006105a68261085b565b9050600360009054906101000a900473ffffffffffffffffffffffffffffffffffffffff1673ffffffffffffffffffffffffffffffffffffffff166108fc349081150290604051600060405180830381858888f19350505050158015610610573d6000803e3d6000fd5b50600260009054906101000a900473ffffffffffffffffffffffffffffffffffffffff1673ffffffffffffffffffffffffffffffffffffffff1663a9059cbb33836040518363ffffffff1660e01b815260040161066e92919061159b565b6020604051808303816000875af115801561068d573d6000803e3d6000fd5b505050506040513d601f19601f820116820180604052508101906106b191906115f0565b6106f0576040517f08c379a00000000000000000000000000000000000000000000000000000000081526004016106e79061168f565b60405180910390fd5b610705346004546110b190919063ffffffff16565b60048190555061075d34600b60003373ffffffffffffffffffffffffffffffffffffffff1673ffffffffffffffffffffffffffffffffffffffff168152602001908152602001600020546110b190919063ffffffff16565b600b60003373ffffffffffffffffffffffffffffffffffffffff1673ffffffffffffffffffffffffffffffffffffffff168152602001908152602001600020819055506107b660016009546110b190919063ffffffff16565b506107cc82600a546110b190919063ffffffff16565b506107d56110c7565b73ffffffffffffffffffffffffffffffffffffffff167f8fafebcaf9d154343dad25669bfa277f4fbacd7ac6b0c4fed522580e040a0f33838360405161081c9291906116af565b60405180910390a25050565b6000600454905090565b600047905090565b6000600154905090565b6000600560009054906101000a900460ff16905090565b6000610872600154836110cf90919063ffffffff16565b9050919050565b6000600b60003373ffffffffffffffffffffffffffffffffffffffff1673ffffffffffffffffffffffffffffffffffffffff16815260200190815260200160002054905090565b6108c86110c7565b73ffffffffffffffffffffffffffffffffffffffff166108e6610a36565b73ffffffffffffffffffffffffffffffffffffffff161461093c576040517f08c379a000000000000000000000000000000000000000000000000000000000815260040161093390611724565b60405180910390fd5b8060008111610980576040517f08c379a000000000000000000000000000000000000000000000000000000000815260040161097790611790565b60405180910390fd5b816001819055505050565b6000600a54905090565b6000600654905090565b6109a76110c7565b73ffffffffffffffffffffffffffffffffffffffff166109c5610a36565b73ffffffffffffffffffffffffffffffffffffffff1614610a1b576040517f08c379a0000000000000000000000000000000000000000000000000000000008152600401610a1290611724565b60405180910390fd5b610a2560006110e5565b565b6000610a31610a36565b905090565b60008060009054906101000a900473ffffffffffffffffffffffffffffffffffffffff16905090565b610a676110c7565b73ffffffffffffffffffffffffffffffffffffffff16610a85610a36565b73ffffffffffffffffffffffffffffffffffffffff1614610adb576040517f08c379a0000000000000000000000000000000000000000000000000000000008152600401610ad290611724565b60405180910390fd5b8060008111610b1f576040517f08c379a0000000000000000000000000000000000000000000000000000000008152600401610b1690611790565b60405180910390fd5b816006819055505050565b60606000600267ffffffffffffffff811115610b4957610b486117b0565b5b604051908082528060200260200182016040528015610b775781602001602082028036833780820191505090505b50905060075481600081518110610b9157610b906117df565b5b60200260200101818152505060085481600181518110610bb457610bb36117df565b5b6020026020010181815250508091505090565b610bcf6110c7565b73ffffffffffffffffffffffffffffffffffffffff16610bed610a36565b73ffffffffffffffffffffffffffffffffffffffff1614610c43576040517f08c379a0000000000000000000000000000000000000000000000000000000008152600401610c3a90611724565b60405180910390fd5b8160008111610c87576040517f08c379a0000000000000000000000000000000000000000000000000000000008152600401610c7e90611790565b60405180910390fd5b8160008111610ccb576040517f08c379a0000000000000000000000000000000000000000000000000000000008152600401610cc290611790565b60405180910390fd5b8360075414610cdc57836007819055505b8260085414610ced57826008819055505b50505050565b610cfb6110c7565b73ffffffffffffffffffffffffffffffffffffffff16610d19610a36565b73ffffffffffffffffffffffffffffffffffffffff1614610d6f576040517f08c379a0000000000000000000000000000000000000000000000000000000008152600401610d6690611724565b60405180910390fd5b6006544210610db3576040517f08c379a0000000000000000000000000000000000000000000000000000000008152600401610daa90611880565b60405180910390fd5b600260009054906101000a900473ffffffffffffffffffffffffffffffffffffffff1673ffffffffffffffffffffffffffffffffffffffff1663a9059cbb82600260009054906101000a900473ffffffffffffffffffffffffffffffffffffffff1673ffffffffffffffffffffffffffffffffffffffff166370a08231306040518263ffffffff1660e01b8152600401610e4d91906112b2565b602060405180830381865afa158015610e6a573d6000803e3d6000fd5b505050506040513d601f19601f82011682018060405250810190610e8e91906118b5565b6040518363ffffffff1660e01b8152600401610eab92919061159b565b6020604051808303816000875af1158015610eca573d6000803e3d6000fd5b505050506040513d601f19601f82011682018060405250810190610eee91906115f0565b5050565b6000610efc6110c7565b73ffffffffffffffffffffffffffffffffffffffff16610f1a610a36565b73ffffffffffffffffffffffffffffffffffffffff1614610f70576040517f08c379a0000000000000000000000000000000000000000000000000000000008152600401610f6790611724565b60405180910390fd5b600560009054906101000a900460ff1615600560006101000a81548160ff021916908315150217905550600560009054906101000a900460ff16905090565b6000600954905090565b610fc16110c7565b73ffffffffffffffffffffffffffffffffffffffff16610fdf610a36565b73ffffffffffffffffffffffffffffffffffffffff1614611035576040517f08c379a000000000000000000000000000000000000000000000000000000000815260040161102c90611724565b60405180910390fd5b600073ffffffffffffffffffffffffffffffffffffffff168173ffffffffffffffffffffffffffffffffffffffff1614156110a5576040517f08c379a000000000000000000000000000000000000000000000000000000000815260040161109c90611954565b60405180910390fd5b6110ae816110e5565b50565b600081836110bf91906119a3565b905092915050565b600033905090565b600081836110dd91906119f9565b905092915050565b60008060009054906101000a900473ffffffffffffffffffffffffffffffffffffffff169050816000806101000a81548173ffffffffffffffffffffffffffffffffffffffff021916908373ffffffffffffffffffffffffffffffffffffffff1602179055508173ffffffffffffffffffffffffffffffffffffffff168173ffffffffffffffffffffffffffffffffffffffff167f8be0079c531659141344cd1fd0a4f28419497f9722a3daafe3b4186f6b6457e060405160405180910390a35050565b6000819050919050565b6111bc816111a9565b82525050565b60006020820190506111d760008301846111b3565b92915050565b60008115159050919050565b6111f2816111dd565b82525050565b600060208201905061120d60008301846111e9565b92915050565b600080fd5b611221816111a9565b811461122c57600080fd5b50565b60008135905061123e81611218565b92915050565b60006020828403121561125a57611259611213565b5b60006112688482850161122f565b91505092915050565b600073ffffffffffffffffffffffffffffffffffffffff82169050919050565b600061129c82611271565b9050919050565b6112ac81611291565b82525050565b60006020820190506112c760008301846112a3565b92915050565b600081519050919050565b600082825260208201905092915050565b6000819050602082019050919050565b611302816111a9565b82525050565b600061131483836112f9565b60208301905092915050565b6000602082019050919050565b6000611338826112cd565b61134281856112d8565b935061134d836112e9565b8060005b8381101561137e5781516113658882611308565b975061137083611320565b925050600181019050611351565b5085935050505092915050565b600060208201905081810360008301526113a5818461132d565b905092915050565b600080604083850312156113c4576113c3611213565b5b60006113d28582860161122f565b92505060206113e38582860161122f565b9150509250929050565b6113f681611291565b811461140157600080fd5b50565b600081359050611413816113ed565b92915050565b60006020828403121561142f5761142e611213565b5b600061143d84828501611404565b91505092915050565b600082825260208201905092915050565b7f50726573616c653a2050726573616c6520697320706175736564000000000000600082015250565b600061148d601a83611446565b915061149882611457565b602082019050919050565b600060208201905081810360008301526114bc81611480565b9050919050565b7f50726573616c653a20427579207175616e74697479206973206c6f7700000000600082015250565b60006114f9601c83611446565b9150611504826114c3565b602082019050919050565b60006020820190508181036000830152611528816114ec565b9050919050565b7f50726573616c653a2041747461696e6564206d61782063617000000000000000600082015250565b6000611565601983611446565b91506115708261152f565b602082019050919050565b6000602082019050818103600083015261159481611558565b9050919050565b60006040820190506115b060008301856112a3565b6115bd60208301846111b3565b9392505050565b6115cd816111dd565b81146115d857600080fd5b50565b6000815190506115ea816115c4565b92915050565b60006020828403121561160657611605611213565b5b6000611614848285016115db565b91505092915050565b7f496e73756666696369656e742062616c616e6365206f662070726573616c652060008201527f636f6e7472616374210000000000000000000000000000000000000000000000602082015250565b6000611679602983611446565b91506116848261161d565b604082019050919050565b600060208201905081810360008301526116a88161166c565b9050919050565b60006040820190506116c460008301856111b3565b6116d160208301846111b3565b9392505050565b7f4f776e61626c653a2063616c6c6572206973206e6f7420746865206f776e6572600082015250565b600061170e602083611446565b9150611719826116d8565b602082019050919050565b6000602082019050818103600083015261173d81611701565b9050919050565b7f50726573616c653a2076616c7565206973203000000000000000000000000000600082015250565b600061177a601383611446565b915061178582611744565b602082019050919050565b600060208201905081810360008301526117a98161176d565b9050919050565b7f4e487b7100000000000000000000000000000000000000000000000000000000600052604160045260246000fd5b7f4e487b7100000000000000000000000000000000000000000000000000000000600052603260045260246000fd5b7f596f752063616e6e6f742067657420746f6b656e7320756e74696c207468652060008201527f70726573616c6520697320636c6f7365642e0000000000000000000000000000602082015250565b600061186a603283611446565b91506118758261180e565b604082019050919050565b600060208201905081810360008301526118998161185d565b9050919050565b6000815190506118af81611218565b92915050565b6000602082840312156118cb576118ca611213565b5b60006118d9848285016118a0565b91505092915050565b7f4f776e61626c653a206e6577206f776e657220697320746865207a65726f206160008201527f6464726573730000000000000000000000000000000000000000000000000000602082015250565b600061193e602683611446565b9150611949826118e2565b604082019050919050565b6000602082019050818103600083015261196d81611931565b9050919050565b7f4e487b7100000000000000000000000000000000000000000000000000000000600052601160045260246000fd5b60006119ae826111a9565b91506119b9836111a9565b9250827fffffffffffffffffffffffffffffffffffffffffffffffffffffffffffffffff038211156119ee576119ed611974565b5b828201905092915050565b6000611a04826111a9565b9150611a0f836111a9565b9250817fffffffffffffffffffffffffffffffffffffffffffffffffffffffffffffffff0483118215151615611a4857611a47611974565b5b82820290509291505056fea26469706673582212207327903970ee6a8e19e8cab2f23bd31f5ed39ee3d2f06e72628965137e1362f264736f6c634300080c0033",
  "immutableReferences": {},
  "source": "//SPDX-License-Identifier:UNLICENSED\npragma solidity ^0.8.0;\n\nimport \"../node_modules/@openzeppelin/contracts/token/ERC20/extensions/IERC20Metadata.sol\";\nimport \"../node_modules/@openzeppelin/contracts/utils/math/SafeMath.sol\";\nimport \"../node_modules/@openzeppelin/contracts/access/Ownable.sol\";\n\n/*\ntogglePause - Pause the presale activities\n\nFund - Fund account\nWithdraw - Withdraw from the account\nbuy - Buy tokens from the account\nsetEndTime - Modify the endate of the presale period\nsetTokenRate - Modity the rate at which the token is sold per Eth | Eth\n*/\n\ncontract Presale is Ownable {\n    using SafeMath for uint256;\n    uint256 rate;\n    IERC20Metadata Token;\n    address wallet;\n\n    uint256 totalReceived; // Total Eth/ETH Received\n\n    bool private allowed = false;\n    uint256 private endate = block.timestamp + 7 days;\n    uint256 private minPurchase = 0.1 ether; //0.1 Eth/ETH\n    uint256 private purchaseCap = 100 ether; // 100 ETH/Eth\n\n    uint256 totalContributors = 0;\n    uint256 private weiRaised = 0;\n    mapping(address => uint256) contributors;\n\n    event TokensPurchased(\n        address indexed purchaser,\n        uint256 value,\n        uint256 amount\n    );\n\n    constructor(\n        uint256 _rate, //Qty of coin to swap for 1 wei or 1 Eth during the ICO\n        address payable _wallet, //this Contract Address for investors to send Ether or Eth in other to recive ERC token in Exchange\n        IERC20Metadata _token // Pointer to the ERC20 token that would be sent to investors\n    ) notZero(_rate) {\n        require(_wallet != address(0), \"Presale: wallet is the zero address\");\n        require(\n            address(_token) != address(0),\n            \"Presale: token is the zero address\"\n        );\n\n        rate = _rate;\n        wallet = _wallet;\n        Token = _token;\n    }\n\n    modifier notZero(uint256 _value) {\n        require(_value > 0, \"Presale: value is 0\");\n        _;\n    }\n\n    function getOwner() external view returns (address) {\n        return owner();\n    }\n\n    function getTotalReceived() external view returns (uint256) {\n        return totalReceived;\n    }\n\n    function getTotalContributors() external view returns (uint256) {\n        return totalContributors;\n    }\n\n    function getAmountRaised() external view returns (uint256) {\n        return weiRaised;\n    }\n\n    function getUserContribution() external view returns (uint256) {\n        return contributors[msg.sender];\n    }\n\n    function getEndate() external view returns (uint256) {\n        return endate;\n    }\n\n    function setEndate(uint256 _enddate) external onlyOwner notZero(_enddate) {\n        endate = _enddate;\n    }\n\n    // Set token rate\n    function setTokenRate(uint256 _rate) external onlyOwner notZero(_rate) {\n        rate = _rate;\n    }\n\n    // Get token rate\n    function getTokenRate() external view returns (uint256) {\n        return rate;\n    }\n\n    // Get Minimum and Maximum purchase\n    function getMinMax() external view returns (uint256[] memory) {\n        uint256[] memory minmax = new uint256[](2);\n        minmax[0] = minPurchase;\n        minmax[1] = purchaseCap;\n        return minmax;\n    }\n\n    // Set Minimum and Maximum purchase\n    function setMinMax(uint256 _minPurchase, uint256 _purchaseCap)\n        external\n        onlyOwner\n        notZero(_minPurchase)\n        notZero(_purchaseCap)\n    {\n        if (minPurchase != _minPurchase) {\n            minPurchase = _minPurchase;\n        }\n\n        if (purchaseCap != _purchaseCap) {\n            purchaseCap = _purchaseCap;\n        }\n    }\n\n    // Get the status of the Presale\n    function getStatus() external view returns (bool) {\n        return allowed;\n    }\n\n    // Pause or Open Presale\n    function togglePause() external onlyOwner returns (bool) {\n        allowed = !allowed;\n        return allowed;\n    }\n\n    //Get balance of tokens remaing in this presale Contract\n    function getBalance() external view returns (uint256) {\n        return address(this).balance;\n    }\n\n    // Deposit some tokens into this presale contract\n    receive() external payable {\n        buyToken();\n    }\n\n    // Withdraw tokens from the presale contract\n    function getUnsoldTokens(address _wallet) external onlyOwner {\n        require(\n            block.timestamp < endate,\n            \"You cannot get tokens until the presale is closed.\"\n        );\n\n        IERC20(Token).transfer(_wallet, IERC20(Token).balanceOf(address(this)));\n    }\n\n    // Buy token\n    /**\n     * @dev recieves Eth and requires some token to be transfered to the msg.sender\n     */\n    function buyToken() public payable {\n        uint256 weiAmount = msg.value;\n        // Make sure presale is currently not paused\n        require(allowed == true, \"Presale: Presale is paused\");\n        // Must send more that minEth\n        require(weiAmount >= minPurchase, \"Presale: Buy quantity is low\");\n        // Sender doesn't exceed maxCap\n        require(\n            contributors[msg.sender].add(weiAmount) < purchaseCap,\n            \"Presale: Attained max cap\"\n        );\n        // Get token value\n        uint256 tokenQuantity = getTokensPerEth(weiAmount);\n\n        // // Recieve the Ethereum into our wallet\n        payable(wallet).transfer(msg.value);\n\n        // Pay the sender in our token\n        require(\n            Token.transfer(msg.sender, tokenQuantity),\n            \"Insufficient balance of presale contract!\"\n        );\n\n        totalReceived = totalReceived.add(msg.value);\n        contributors[msg.sender] = contributors[msg.sender].add(msg.value);\n        totalContributors.add(1);\n        weiRaised.add(weiAmount);\n        emit TokensPurchased(_msgSender(), weiAmount, tokenQuantity);\n    }\n\n    function getTokensPerEth(uint256 weiVal) public view returns (uint256) {\n        return weiVal.mul(rate);\n    }\n}\n",
  "sourcePath": "/Users/clinton/Sites/primedex/smart-contract/contracts/Presale.sol",
  "compiler": {
    "name": "solc",
    "version": "0.8.12+commit.f00d7308.Emscripten.clang"
  },
  "schemaVersion": "3.4.7",
  "updatedAt": "2022-05-31T14:51:12.258Z",
  "networkType": "ethereum",
  "devdoc": {
    "kind": "dev",
    "methods": {
      "buyToken()": {
        "details": "recieves Eth and requires some token to be transfered to the msg.sender"
      },
      "owner()": {
        "details": "Returns the address of the current owner."
      },
      "renounceOwnership()": {
        "details": "Leaves the contract without owner. It will not be possible to call `onlyOwner` functions anymore. Can only be called by the current owner. NOTE: Renouncing ownership will leave the contract without an owner, thereby removing any functionality that is only available to the owner."
      },
      "transferOwnership(address)": {
        "details": "Transfers ownership of the contract to a new account (`newOwner`). Can only be called by the current owner."
      }
    },
    "version": 1
  },
  "userdoc": {
    "kind": "user",
    "methods": {},
    "version": 1
  }
}