{
  "contractName": "Presale",
  "abi": [
    {
      "inputs": [
        {
          "internalType": "uint256",
          "name": "_rate",
          "type": "uint256"
        },
        {
          "internalType": "address payable",
          "name": "_wallet",
          "type": "address"
        },
        {
          "internalType": "contract IERC20Metadata",
          "name": "_token",
          "type": "address"
        }
      ],
      "stateMutability": "nonpayable",
      "type": "constructor"
    },
    {
      "anonymous": false,
      "inputs": [
        {
          "indexed": true,
          "internalType": "address",
          "name": "previousOwner",
          "type": "address"
        },
        {
          "indexed": true,
          "internalType": "address",
          "name": "newOwner",
          "type": "address"
        }
      ],
      "name": "OwnershipTransferred",
      "type": "event"
    },
    {
      "inputs": [],
      "name": "owner",
      "outputs": [
        {
          "internalType": "address",
          "name": "",
          "type": "address"
        }
      ],
      "stateMutability": "view",
      "type": "function",
      "constant": true
    },
    {
      "inputs": [],
      "name": "renounceOwnership",
      "outputs": [],
      "stateMutability": "nonpayable",
      "type": "function"
    },
    {
      "inputs": [
        {
          "internalType": "address",
          "name": "newOwner",
          "type": "address"
        }
      ],
      "name": "transferOwnership",
      "outputs": [],
      "stateMutability": "nonpayable",
      "type": "function"
    },
    {
      "stateMutability": "payable",
      "type": "receive",
      "payable": true
    },
    {
      "inputs": [],
      "name": "getOwner",
      "outputs": [
        {
          "internalType": "address",
          "name": "",
          "type": "address"
        }
      ],
      "stateMutability": "view",
      "type": "function",
      "constant": true
    },
    {
      "inputs": [],
      "name": "getTotalReceived",
      "outputs": [
        {
          "internalType": "uint256",
          "name": "",
          "type": "uint256"
        }
      ],
      "stateMutability": "view",
      "type": "function",
      "constant": true
    },
    {
      "inputs": [],
      "name": "getTotalContributors",
      "outputs": [
        {
          "internalType": "uint256",
          "name": "",
          "type": "uint256"
        }
      ],
      "stateMutability": "view",
      "type": "function",
      "constant": true
    },
    {
      "inputs": [],
      "name": "getEndate",
      "outputs": [
        {
          "internalType": "uint256",
          "name": "",
          "type": "uint256"
        }
      ],
      "stateMutability": "view",
      "type": "function",
      "constant": true
    },
    {
      "inputs": [
        {
          "internalType": "uint256",
          "name": "_enddate",
          "type": "uint256"
        }
      ],
      "name": "setEndate",
      "outputs": [],
      "stateMutability": "nonpayable",
      "type": "function"
    },
    {
      "inputs": [
        {
          "internalType": "uint256",
          "name": "_rate",
          "type": "uint256"
        }
      ],
      "name": "setTokenRate",
      "outputs": [],
      "stateMutability": "nonpayable",
      "type": "function"
    },
    {
      "inputs": [],
      "name": "getTokenRate",
      "outputs": [
        {
          "internalType": "uint256",
          "name": "",
          "type": "uint256"
        }
      ],
      "stateMutability": "view",
      "type": "function",
      "constant": true
    },
    {
      "inputs": [],
      "name": "getStatus",
      "outputs": [
        {
          "internalType": "bool",
          "name": "",
          "type": "bool"
        }
      ],
      "stateMutability": "view",
      "type": "function",
      "constant": true
    },
    {
      "inputs": [],
      "name": "togglePause",
      "outputs": [
        {
          "internalType": "bool",
          "name": "",
          "type": "bool"
        }
      ],
      "stateMutability": "nonpayable",
      "type": "function"
    },
    {
      "inputs": [],
      "name": "getBalance",
      "outputs": [
        {
          "internalType": "uint256",
          "name": "",
          "type": "uint256"
        }
      ],
      "stateMutability": "view",
      "type": "function",
      "constant": true
    },
    {
      "inputs": [
        {
          "internalType": "address",
          "name": "_wallet",
          "type": "address"
        },
        {
          "internalType": "uint256",
          "name": "_amount",
          "type": "uint256"
        }
      ],
      "name": "withdraw",
      "outputs": [],
      "stateMutability": "payable",
      "type": "function",
      "payable": true
    },
    {
      "inputs": [],
      "name": "buyToken",
      "outputs": [],
      "stateMutability": "payable",
      "type": "function",
      "payable": true
    },
    {
      "inputs": [
        {
          "internalType": "uint256",
          "name": "weiVal",
          "type": "uint256"
        }
      ],
      "name": "getTokensPerEth",
      "outputs": [
        {
          "internalType": "uint256",
          "name": "",
          "type": "uint256"
        }
      ],
      "stateMutability": "view",
      "type": "function",
      "constant": true
    }
  ],
  "bytecode": "0x608060405262093a804262000015919062000365565b600655633b9aca0060075568056bc75e2d6310000060085560006009553480156200003f57600080fd5b5060405162001e4338038062001e438339818101604052810190620000659190620004b6565b62000085620000796200026060201b60201c565b6200026860201b60201c565b8260008111620000cc576040517f08c379a0000000000000000000000000000000000000000000000000000000008152600401620000c39062000573565b60405180910390fd5b600073ffffffffffffffffffffffffffffffffffffffff168373ffffffffffffffffffffffffffffffffffffffff1614156200013f576040517f08c379a000000000000000000000000000000000000000000000000000000000815260040162000136906200060b565b60405180910390fd5b600073ffffffffffffffffffffffffffffffffffffffff168273ffffffffffffffffffffffffffffffffffffffff161415620001b2576040517f08c379a0000000000000000000000000000000000000000000000000000000008152600401620001a990620006a3565b60405180910390fd5b8360018190555082600360006101000a81548173ffffffffffffffffffffffffffffffffffffffff021916908373ffffffffffffffffffffffffffffffffffffffff16021790555081600260006101000a81548173ffffffffffffffffffffffffffffffffffffffff021916908373ffffffffffffffffffffffffffffffffffffffff1602179055506001600560006101000a81548160ff02191690831515021790555050505050620006c5565b600033905090565b60008060009054906101000a900473ffffffffffffffffffffffffffffffffffffffff169050816000806101000a81548173ffffffffffffffffffffffffffffffffffffffff021916908373ffffffffffffffffffffffffffffffffffffffff1602179055508173ffffffffffffffffffffffffffffffffffffffff168173ffffffffffffffffffffffffffffffffffffffff167f8be0079c531659141344cd1fd0a4f28419497f9722a3daafe3b4186f6b6457e060405160405180910390a35050565b6000819050919050565b7f4e487b7100000000000000000000000000000000000000000000000000000000600052601160045260246000fd5b600062000372826200032c565b91506200037f836200032c565b9250827fffffffffffffffffffffffffffffffffffffffffffffffffffffffffffffffff03821115620003b757620003b662000336565b5b828201905092915050565b600080fd5b620003d2816200032c565b8114620003de57600080fd5b50565b600081519050620003f281620003c7565b92915050565b600073ffffffffffffffffffffffffffffffffffffffff82169050919050565b60006200042582620003f8565b9050919050565b620004378162000418565b81146200044357600080fd5b50565b60008151905062000457816200042c565b92915050565b60006200046a82620003f8565b9050919050565b60006200047e826200045d565b9050919050565b620004908162000471565b81146200049c57600080fd5b50565b600081519050620004b08162000485565b92915050565b600080600060608486031215620004d257620004d1620003c2565b5b6000620004e286828701620003e1565b9350506020620004f58682870162000446565b925050604062000508868287016200049f565b9150509250925092565b600082825260208201905092915050565b7f50726573616c653a2076616c7565206973203000000000000000000000000000600082015250565b60006200055b60138362000512565b9150620005688262000523565b602082019050919050565b600060208201905081810360008301526200058e816200054c565b9050919050565b7f50726573616c653a2077616c6c657420697320746865207a65726f206164647260008201527f6573730000000000000000000000000000000000000000000000000000000000602082015250565b6000620005f360238362000512565b9150620006008262000595565b604082019050919050565b600060208201905081810360008301526200062681620005e4565b9050919050565b7f50726573616c653a20746f6b656e20697320746865207a65726f20616464726560008201527f7373000000000000000000000000000000000000000000000000000000000000602082015250565b60006200068b60228362000512565b915062000698826200062d565b604082019050919050565b60006020820190508181036000830152620006be816200067c565b9050919050565b61176e80620006d56000396000f3fe6080604052600436106100f75760003560e01c8063893d20e81161008a578063c4ae316811610059578063c4ae3168146102e8578063dc58a56c14610313578063f2fde38b1461033e578063f3fef3a31461036757610106565b8063893d20e81461025f5780638da5cb5b1461028a5780638daaa881146102b5578063a4821719146102de57610106565b806356f0889c116100c657806356f0889c146101b757806361241c28146101f45780636d6a60321461021d578063715018a61461024857610106565b80630592a6121461010b57806312065fe0146101365780633e2d7004146101615780634e69d5601461018c57610106565b3661010657610104610383565b005b600080fd5b34801561011757600080fd5b506101206106d2565b60405161012d9190610e6a565b60405180910390f35b34801561014257600080fd5b5061014b6106dc565b6040516101589190610e6a565b60405180910390f35b34801561016d57600080fd5b506101766106e4565b6040516101839190610e6a565b60405180910390f35b34801561019857600080fd5b506101a16106ee565b6040516101ae9190610ea0565b60405180910390f35b3480156101c357600080fd5b506101de60048036038101906101d99190610eec565b610705565b6040516101eb9190610e6a565b60405180910390f35b34801561020057600080fd5b5061021b60048036038101906102169190610eec565b6107e7565b005b34801561022957600080fd5b506102326108b2565b60405161023f9190610e6a565b60405180910390f35b34801561025457600080fd5b5061025d6108bc565b005b34801561026b57600080fd5b50610274610944565b6040516102819190610f5a565b60405180910390f35b34801561029657600080fd5b5061029f610953565b6040516102ac9190610f5a565b60405180910390f35b3480156102c157600080fd5b506102dc60048036038101906102d79190610eec565b61097c565b005b6102e6610383565b005b3480156102f457600080fd5b506102fd610a47565b60405161030a9190610ea0565b60405180910390f35b34801561031f57600080fd5b50610328610b04565b6040516103359190610e6a565b60405180910390f35b34801561034a57600080fd5b5061036560048036038101906103609190610fa1565b610b0e565b005b610381600480360381019061037c9190610fce565b610c06565b005b60001515600560009054906101000a900460ff161515146103d9576040517f08c379a00000000000000000000000000000000000000000000000000000000081526004016103d09061106b565b60405180910390fd5b60075434101561041e576040517f08c379a0000000000000000000000000000000000000000000000000000000008152600401610415906110d7565b60405180910390fd5b60085461047334600a60003373ffffffffffffffffffffffffffffffffffffffff1673ffffffffffffffffffffffffffffffffffffffff16815260200190815260200160002054610d2d90919063ffffffff16565b106104b3576040517f08c379a00000000000000000000000000000000000000000000000000000000081526004016104aa90611143565b60405180910390fd5b60006104be34610705565b9050600360009054906101000a900473ffffffffffffffffffffffffffffffffffffffff1673ffffffffffffffffffffffffffffffffffffffff166108fc349081150290604051600060405180830381858888f19350505050158015610528573d6000803e3d6000fd5b50600260009054906101000a900473ffffffffffffffffffffffffffffffffffffffff1673ffffffffffffffffffffffffffffffffffffffff1663a9059cbb33836040518363ffffffff1660e01b8152600401610586929190611163565b6020604051808303816000875af11580156105a5573d6000803e3d6000fd5b505050506040513d601f19601f820116820180604052508101906105c991906111b8565b610608576040517f08c379a00000000000000000000000000000000000000000000000000000000081526004016105ff90611257565b60405180910390fd5b61061d34600454610d2d90919063ffffffff16565b60048190555061067534600a60003373ffffffffffffffffffffffffffffffffffffffff1673ffffffffffffffffffffffffffffffffffffffff16815260200190815260200160002054610d2d90919063ffffffff16565b600a60003373ffffffffffffffffffffffffffffffffffffffff1673ffffffffffffffffffffffffffffffffffffffff168152602001908152602001600020819055506106ce6001600954610d2d90919063ffffffff16565b5050565b6000600454905090565b600047905090565b6000600154905090565b6000600560009054906101000a900460ff16905090565b60006107e06107b1600260009054906101000a900473ffffffffffffffffffffffffffffffffffffffff1673ffffffffffffffffffffffffffffffffffffffff1663313ce5676040518163ffffffff1660e01b8152600401602060405180830381865afa15801561077a573d6000803e3d6000fd5b505050506040513d601f19601f8201168201806040525081019061079e91906112b0565b60ff166012610d4390919063ffffffff16565b600a6107bd919061143f565b6107d260015485610d5990919063ffffffff16565b610d6f90919063ffffffff16565b9050919050565b6107ef610d85565b73ffffffffffffffffffffffffffffffffffffffff1661080d610953565b73ffffffffffffffffffffffffffffffffffffffff1614610863576040517f08c379a000000000000000000000000000000000000000000000000000000000815260040161085a906114d6565b60405180910390fd5b80600081116108a7576040517f08c379a000000000000000000000000000000000000000000000000000000000815260040161089e90611542565b60405180910390fd5b816001819055505050565b6000600654905090565b6108c4610d85565b73ffffffffffffffffffffffffffffffffffffffff166108e2610953565b73ffffffffffffffffffffffffffffffffffffffff1614610938576040517f08c379a000000000000000000000000000000000000000000000000000000000815260040161092f906114d6565b60405180910390fd5b6109426000610d8d565b565b600061094e610953565b905090565b60008060009054906101000a900473ffffffffffffffffffffffffffffffffffffffff16905090565b610984610d85565b73ffffffffffffffffffffffffffffffffffffffff166109a2610953565b73ffffffffffffffffffffffffffffffffffffffff16146109f8576040517f08c379a00000000000000000000000000000000000000000000000000000000081526004016109ef906114d6565b60405180910390fd5b8060008111610a3c576040517f08c379a0000000000000000000000000000000000000000000000000000000008152600401610a3390611542565b60405180910390fd5b816006819055505050565b6000610a51610d85565b73ffffffffffffffffffffffffffffffffffffffff16610a6f610953565b73ffffffffffffffffffffffffffffffffffffffff1614610ac5576040517f08c379a0000000000000000000000000000000000000000000000000000000008152600401610abc906114d6565b60405180910390fd5b600560009054906101000a900460ff1615600560006101000a81548160ff021916908315150217905550600560009054906101000a900460ff16905090565b6000600954905090565b610b16610d85565b73ffffffffffffffffffffffffffffffffffffffff16610b34610953565b73ffffffffffffffffffffffffffffffffffffffff1614610b8a576040517f08c379a0000000000000000000000000000000000000000000000000000000008152600401610b81906114d6565b60405180910390fd5b600073ffffffffffffffffffffffffffffffffffffffff168173ffffffffffffffffffffffffffffffffffffffff161415610bfa576040517f08c379a0000000000000000000000000000000000000000000000000000000008152600401610bf1906115d4565b60405180910390fd5b610c0381610d8d565b50565b610c0e610d85565b73ffffffffffffffffffffffffffffffffffffffff16610c2c610953565b73ffffffffffffffffffffffffffffffffffffffff1614610c82576040517f08c379a0000000000000000000000000000000000000000000000000000000008152600401610c79906114d6565b60405180910390fd5b6000479050600073ffffffffffffffffffffffffffffffffffffffff168373ffffffffffffffffffffffffffffffffffffffff161415610cc757610cc4610953565b92505b60008211610cd3578091505b8181610cdf91906115f4565b90508273ffffffffffffffffffffffffffffffffffffffff166108fc839081150290604051600060405180830381858888f19350505050158015610d27573d6000803e3d6000fd5b50505050565b60008183610d3b9190611628565b905092915050565b60008183610d5191906115f4565b905092915050565b60008183610d67919061167e565b905092915050565b60008183610d7d9190611707565b905092915050565b600033905090565b60008060009054906101000a900473ffffffffffffffffffffffffffffffffffffffff169050816000806101000a81548173ffffffffffffffffffffffffffffffffffffffff021916908373ffffffffffffffffffffffffffffffffffffffff1602179055508173ffffffffffffffffffffffffffffffffffffffff168173ffffffffffffffffffffffffffffffffffffffff167f8be0079c531659141344cd1fd0a4f28419497f9722a3daafe3b4186f6b6457e060405160405180910390a35050565b6000819050919050565b610e6481610e51565b82525050565b6000602082019050610e7f6000830184610e5b565b92915050565b60008115159050919050565b610e9a81610e85565b82525050565b6000602082019050610eb56000830184610e91565b92915050565b600080fd5b610ec981610e51565b8114610ed457600080fd5b50565b600081359050610ee681610ec0565b92915050565b600060208284031215610f0257610f01610ebb565b5b6000610f1084828501610ed7565b91505092915050565b600073ffffffffffffffffffffffffffffffffffffffff82169050919050565b6000610f4482610f19565b9050919050565b610f5481610f39565b82525050565b6000602082019050610f6f6000830184610f4b565b92915050565b610f7e81610f39565b8114610f8957600080fd5b50565b600081359050610f9b81610f75565b92915050565b600060208284031215610fb757610fb6610ebb565b5b6000610fc584828501610f8c565b91505092915050565b60008060408385031215610fe557610fe4610ebb565b5b6000610ff385828601610f8c565b925050602061100485828601610ed7565b9150509250929050565b600082825260208201905092915050565b7f50726573616c653a2050726573616c6520697320706175736564000000000000600082015250565b6000611055601a8361100e565b91506110608261101f565b602082019050919050565b6000602082019050818103600083015261108481611048565b9050919050565b7f50726573616c653a20427579207175616e74697479206973206c6f7700000000600082015250565b60006110c1601c8361100e565b91506110cc8261108b565b602082019050919050565b600060208201905081810360008301526110f0816110b4565b9050919050565b7f50726573616c653a2041747461696e6564206d61782063617000000000000000600082015250565b600061112d60198361100e565b9150611138826110f7565b602082019050919050565b6000602082019050818103600083015261115c81611120565b9050919050565b60006040820190506111786000830185610f4b565b6111856020830184610e5b565b9392505050565b61119581610e85565b81146111a057600080fd5b50565b6000815190506111b28161118c565b92915050565b6000602082840312156111ce576111cd610ebb565b5b60006111dc848285016111a3565b91505092915050565b7f496e73756666696369656e742062616c616e6365206f662070726573616c652060008201527f636f6e7472616374210000000000000000000000000000000000000000000000602082015250565b600061124160298361100e565b915061124c826111e5565b604082019050919050565b6000602082019050818103600083015261127081611234565b9050919050565b600060ff82169050919050565b61128d81611277565b811461129857600080fd5b50565b6000815190506112aa81611284565b92915050565b6000602082840312156112c6576112c5610ebb565b5b60006112d48482850161129b565b91505092915050565b7f4e487b7100000000000000000000000000000000000000000000000000000000600052601160045260246000fd5b60008160011c9050919050565b6000808291508390505b60018511156113635780860481111561133f5761133e6112dd565b5b600185161561134e5780820291505b808102905061135c8561130c565b9450611323565b94509492505050565b60008261137c5760019050611438565b8161138a5760009050611438565b81600181146113a057600281146113aa576113d9565b6001915050611438565b60ff8411156113bc576113bb6112dd565b5b8360020a9150848211156113d3576113d26112dd565b5b50611438565b5060208310610133831016604e8410600b841016171561140e5782820a905083811115611409576114086112dd565b5b611438565b61141b8484846001611319565b92509050818404811115611432576114316112dd565b5b81810290505b9392505050565b600061144a82610e51565b915061145583610e51565b92506114827fffffffffffffffffffffffffffffffffffffffffffffffffffffffffffffffff848461136c565b905092915050565b7f4f776e61626c653a2063616c6c6572206973206e6f7420746865206f776e6572600082015250565b60006114c060208361100e565b91506114cb8261148a565b602082019050919050565b600060208201905081810360008301526114ef816114b3565b9050919050565b7f50726573616c653a2076616c7565206973203000000000000000000000000000600082015250565b600061152c60138361100e565b9150611537826114f6565b602082019050919050565b6000602082019050818103600083015261155b8161151f565b9050919050565b7f4f776e61626c653a206e6577206f776e657220697320746865207a65726f206160008201527f6464726573730000000000000000000000000000000000000000000000000000602082015250565b60006115be60268361100e565b91506115c982611562565b604082019050919050565b600060208201905081810360008301526115ed816115b1565b9050919050565b60006115ff82610e51565b915061160a83610e51565b92508282101561161d5761161c6112dd565b5b828203905092915050565b600061163382610e51565b915061163e83610e51565b9250827fffffffffffffffffffffffffffffffffffffffffffffffffffffffffffffffff03821115611673576116726112dd565b5b828201905092915050565b600061168982610e51565b915061169483610e51565b9250817fffffffffffffffffffffffffffffffffffffffffffffffffffffffffffffffff04831182151516156116cd576116cc6112dd565b5b828202905092915050565b7f4e487b7100000000000000000000000000000000000000000000000000000000600052601260045260246000fd5b600061171282610e51565b915061171d83610e51565b92508261172d5761172c6116d8565b5b82820490509291505056fea2646970667358221220ccdd81cb0a3c27b832399748cb6ae1c24f7fd9c2fc8a5283943c39aae638ef9e64736f6c634300080c0033",
  "immutableReferences": {},
  "source": "//SPDX-License-Identifier:UNLICENSED\npragma solidity ^0.8.12;\n\nimport \"@openzeppelin/contracts/token/ERC20/extensions/IERC20Metadata.sol\";\nimport \"@openzeppelin/contracts/utils/math/SafeMath.sol\";\nimport \"@openzeppelin/contracts/access/Ownable.sol\";\n\n/*\ntogglePause - Pause the presale activities\n\nFund - Fund account\nWithdraw - Withdraw from the account\nbuy - Buy tokens from the account\nsetEndTime - Modify the endate of the presale period\nsetTokenRate - Modity the rate at which the token is sold per Eth | Eth\n*/\n\ncontract Presale is Ownable {\n    using SafeMath for uint256;\n    uint256 rate;\n    IERC20Metadata Token;\n    address wallet;\n\n    uint256 totalReceived; // Total Eth/ETH Received\n\n    bool allowed;\n    uint256 endate = block.timestamp + 7 days;\n    uint256 minPurchase = (10**9); //0.5 Eth/ETH\n    uint256 purchaseCap = (100 * 10**18); // 100 ETH/Eth\n\n    uint256 totalContributors = 0;\n    mapping(address => uint256) contributors;\n\n    constructor(\n        uint256 _rate, //Qty of coin to swap for 1 wei or 1 Eth during the ICO\n        address payable _wallet, //this Contract Address for investors to send Ether or Eth in other to recive ERC token in Exchange\n        IERC20Metadata _token // Pointer to the ERC20 token that would be sent to investors\n    ) notZero(_rate) {\n        require(_wallet != address(0), \"Presale: wallet is the zero address\");\n        require(\n            address(_token) != address(0),\n            \"Presale: token is the zero address\"\n        );\n\n        rate = _rate;\n        wallet = _wallet;\n        Token = _token;\n        allowed = true;\n    }\n\n    modifier notZero(uint256 _value) {\n        require(_value > 0, \"Presale: value is 0\");\n        _;\n    }\n\n    function getOwner() external view returns (address) {\n        return owner();\n    }\n\n    function getTotalReceived() external view returns (uint256) {\n        return totalReceived;\n    }\n\n    function getTotalContributors() external view returns (uint256) {\n        return totalContributors;\n    }\n\n    function getEndate() external view returns (uint256) {\n        return endate;\n    }\n\n    function setEndate(uint256 _enddate) external onlyOwner notZero(_enddate) {\n        endate = _enddate;\n    }\n\n    // Set token rate\n    function setTokenRate(uint256 _rate) external onlyOwner notZero(_rate) {\n        rate = _rate;\n    }\n\n    // Get token rate\n    function getTokenRate() external view returns (uint256) {\n        return rate;\n    }\n\n    // Get the status of the Presale\n    function getStatus() external view returns (bool) {\n        return allowed;\n    }\n\n    // Pause or Open Presale\n    function togglePause() external onlyOwner returns (bool) {\n        allowed = !allowed;\n        return allowed;\n    }\n\n    //Get balance of tokens remaing in this presale Contract\n    function getBalance() external view returns (uint256) {\n        return address(this).balance;\n    }\n\n    // Deposit some tokens into this presale contract\n    receive() external payable {\n        buyToken();\n    }\n\n    // Withdraw money from the presale contract\n    function withdraw(address _wallet, uint256 _amount)\n        external\n        payable\n        onlyOwner\n    {\n        uint256 balance = address(this).balance;\n        if (_wallet == address(0)) _wallet = owner();\n        if (_amount <= 0) _amount = balance;\n\n        balance = balance - _amount;\n        payable(address(_wallet)).transfer(_amount);\n    }\n\n    // Buy token\n    /**\n     * @dev recieves Eth and requires some token to be transfered to the msg.sender\n     */\n    function buyToken() public payable {\n        // Make sure presale is currently not paused\n        require(allowed == false, \"Presale: Presale is paused\");\n        // Must send more that minEth\n        require(msg.value >= minPurchase, \"Presale: Buy quantity is low\");\n        // Sender doesn't exceed maxCap\n        require(\n            contributors[msg.sender].add(msg.value) < purchaseCap,\n            \"Presale: Attained max cap\"\n        );\n        // Get token value\n        uint256 tokenQuantity = getTokensPerEth(msg.value);\n\n        // Recieve the Ethereum into our wallet\n        payable(wallet).transfer(msg.value);\n\n        // Pay the sender in our token\n        require(\n            Token.transfer(msg.sender, tokenQuantity),\n            \"Insufficient balance of presale contract!\"\n        );\n\n        totalReceived = totalReceived.add(msg.value);\n        contributors[msg.sender] = contributors[msg.sender].add(msg.value);\n        totalContributors.add(1);\n    }\n\n    function getTokensPerEth(uint256 weiVal) public view returns (uint256) {\n        return weiVal.mul(rate).div(10**(uint256(18).sub(Token.decimals())));\n    }\n}\n",
  "sourcePath": "/Users/clinton/Sites/primedex/smart-contract/contracts/Presale.sol",
  "compiler": {
    "name": "solc",
    "version": "0.8.12+commit.f00d7308.Emscripten.clang"
  },
  "schemaVersion": "3.4.7",
  "updatedAt": "2022-05-24T23:58:56.905Z",
  "networkType": "ethereum",
  "devdoc": {
    "kind": "dev",
    "methods": {
      "buyToken()": {
        "details": "recieves Eth and requires some token to be transfered to the msg.sender"
      },
      "owner()": {
        "details": "Returns the address of the current owner."
      },
      "renounceOwnership()": {
        "details": "Leaves the contract without owner. It will not be possible to call `onlyOwner` functions anymore. Can only be called by the current owner. NOTE: Renouncing ownership will leave the contract without an owner, thereby removing any functionality that is only available to the owner."
      },
      "transferOwnership(address)": {
        "details": "Transfers ownership of the contract to a new account (`newOwner`). Can only be called by the current owner."
      }
    },
    "version": 1
  },
  "userdoc": {
    "kind": "user",
    "methods": {},
    "version": 1
  }
}