{
  "contractName": "Presale",
  "abi": [
    {
      "inputs": [
        {
          "internalType": "uint256",
          "name": "_rate",
          "type": "uint256"
        },
        {
          "internalType": "address payable",
          "name": "_wallet",
          "type": "address"
        },
        {
          "internalType": "contract IERC20Metadata",
          "name": "_token",
          "type": "address"
        }
      ],
      "stateMutability": "nonpayable",
      "type": "constructor"
    },
    {
      "anonymous": false,
      "inputs": [
        {
          "indexed": true,
          "internalType": "address",
          "name": "previousOwner",
          "type": "address"
        },
        {
          "indexed": true,
          "internalType": "address",
          "name": "newOwner",
          "type": "address"
        }
      ],
      "name": "OwnershipTransferred",
      "type": "event"
    },
    {
      "inputs": [],
      "name": "owner",
      "outputs": [
        {
          "internalType": "address",
          "name": "",
          "type": "address"
        }
      ],
      "stateMutability": "view",
      "type": "function",
      "constant": true
    },
    {
      "inputs": [],
      "name": "renounceOwnership",
      "outputs": [],
      "stateMutability": "nonpayable",
      "type": "function"
    },
    {
      "inputs": [
        {
          "internalType": "address",
          "name": "newOwner",
          "type": "address"
        }
      ],
      "name": "transferOwnership",
      "outputs": [],
      "stateMutability": "nonpayable",
      "type": "function"
    },
    {
      "stateMutability": "payable",
      "type": "receive",
      "payable": true
    },
    {
      "inputs": [],
      "name": "getOwner",
      "outputs": [
        {
          "internalType": "address",
          "name": "",
          "type": "address"
        }
      ],
      "stateMutability": "view",
      "type": "function",
      "constant": true
    },
    {
      "inputs": [],
      "name": "getTotalReceived",
      "outputs": [
        {
          "internalType": "uint256",
          "name": "",
          "type": "uint256"
        }
      ],
      "stateMutability": "view",
      "type": "function",
      "constant": true
    },
    {
      "inputs": [],
      "name": "getTotalContributors",
      "outputs": [
        {
          "internalType": "uint256",
          "name": "",
          "type": "uint256"
        }
      ],
      "stateMutability": "view",
      "type": "function",
      "constant": true
    },
    {
      "inputs": [],
      "name": "getUserContribution",
      "outputs": [
        {
          "internalType": "uint256",
          "name": "",
          "type": "uint256"
        }
      ],
      "stateMutability": "view",
      "type": "function",
      "constant": true
    },
    {
      "inputs": [],
      "name": "getEndate",
      "outputs": [
        {
          "internalType": "uint256",
          "name": "",
          "type": "uint256"
        }
      ],
      "stateMutability": "view",
      "type": "function",
      "constant": true
    },
    {
      "inputs": [
        {
          "internalType": "uint256",
          "name": "_enddate",
          "type": "uint256"
        }
      ],
      "name": "setEndate",
      "outputs": [],
      "stateMutability": "nonpayable",
      "type": "function"
    },
    {
      "inputs": [
        {
          "internalType": "uint256",
          "name": "_rate",
          "type": "uint256"
        }
      ],
      "name": "setTokenRate",
      "outputs": [],
      "stateMutability": "nonpayable",
      "type": "function"
    },
    {
      "inputs": [],
      "name": "getTokenRate",
      "outputs": [
        {
          "internalType": "uint256",
          "name": "",
          "type": "uint256"
        }
      ],
      "stateMutability": "view",
      "type": "function",
      "constant": true
    },
    {
      "inputs": [],
      "name": "getStatus",
      "outputs": [
        {
          "internalType": "bool",
          "name": "",
          "type": "bool"
        }
      ],
      "stateMutability": "view",
      "type": "function",
      "constant": true
    },
    {
      "inputs": [],
      "name": "togglePause",
      "outputs": [
        {
          "internalType": "bool",
          "name": "",
          "type": "bool"
        }
      ],
      "stateMutability": "nonpayable",
      "type": "function"
    },
    {
      "inputs": [],
      "name": "getBalance",
      "outputs": [
        {
          "internalType": "uint256",
          "name": "",
          "type": "uint256"
        }
      ],
      "stateMutability": "view",
      "type": "function",
      "constant": true
    },
    {
      "inputs": [
        {
          "internalType": "address",
          "name": "_wallet",
          "type": "address"
        },
        {
          "internalType": "uint256",
          "name": "_amount",
          "type": "uint256"
        }
      ],
      "name": "withdraw",
      "outputs": [],
      "stateMutability": "payable",
      "type": "function",
      "payable": true
    },
    {
      "inputs": [],
      "name": "buyToken",
      "outputs": [],
      "stateMutability": "payable",
      "type": "function",
      "payable": true
    },
    {
      "inputs": [
        {
          "internalType": "uint256",
          "name": "weiVal",
          "type": "uint256"
        }
      ],
      "name": "getTokensPerEth",
      "outputs": [
        {
          "internalType": "uint256",
          "name": "",
          "type": "uint256"
        }
      ],
      "stateMutability": "view",
      "type": "function",
      "constant": true
    }
  ],
  "bytecode": "0x608060405262093a804262000015919062000365565b600655633b9aca0060075568056bc75e2d6310000060085560006009553480156200003f57600080fd5b5060405162001ec038038062001ec08339818101604052810190620000659190620004b6565b62000085620000796200026060201b60201c565b6200026860201b60201c565b8260008111620000cc576040517f08c379a0000000000000000000000000000000000000000000000000000000008152600401620000c39062000573565b60405180910390fd5b600073ffffffffffffffffffffffffffffffffffffffff168373ffffffffffffffffffffffffffffffffffffffff1614156200013f576040517f08c379a000000000000000000000000000000000000000000000000000000000815260040162000136906200060b565b60405180910390fd5b600073ffffffffffffffffffffffffffffffffffffffff168273ffffffffffffffffffffffffffffffffffffffff161415620001b2576040517f08c379a0000000000000000000000000000000000000000000000000000000008152600401620001a990620006a3565b60405180910390fd5b8360018190555082600360006101000a81548173ffffffffffffffffffffffffffffffffffffffff021916908373ffffffffffffffffffffffffffffffffffffffff16021790555081600260006101000a81548173ffffffffffffffffffffffffffffffffffffffff021916908373ffffffffffffffffffffffffffffffffffffffff1602179055506001600560006101000a81548160ff02191690831515021790555050505050620006c5565b600033905090565b60008060009054906101000a900473ffffffffffffffffffffffffffffffffffffffff169050816000806101000a81548173ffffffffffffffffffffffffffffffffffffffff021916908373ffffffffffffffffffffffffffffffffffffffff1602179055508173ffffffffffffffffffffffffffffffffffffffff168173ffffffffffffffffffffffffffffffffffffffff167f8be0079c531659141344cd1fd0a4f28419497f9722a3daafe3b4186f6b6457e060405160405180910390a35050565b6000819050919050565b7f4e487b7100000000000000000000000000000000000000000000000000000000600052601160045260246000fd5b600062000372826200032c565b91506200037f836200032c565b9250827fffffffffffffffffffffffffffffffffffffffffffffffffffffffffffffffff03821115620003b757620003b662000336565b5b828201905092915050565b600080fd5b620003d2816200032c565b8114620003de57600080fd5b50565b600081519050620003f281620003c7565b92915050565b600073ffffffffffffffffffffffffffffffffffffffff82169050919050565b60006200042582620003f8565b9050919050565b620004378162000418565b81146200044357600080fd5b50565b60008151905062000457816200042c565b92915050565b60006200046a82620003f8565b9050919050565b60006200047e826200045d565b9050919050565b620004908162000471565b81146200049c57600080fd5b50565b600081519050620004b08162000485565b92915050565b600080600060608486031215620004d257620004d1620003c2565b5b6000620004e286828701620003e1565b9350506020620004f58682870162000446565b925050604062000508868287016200049f565b9150509250925092565b600082825260208201905092915050565b7f50726573616c653a2076616c7565206973203000000000000000000000000000600082015250565b60006200055b60138362000512565b9150620005688262000523565b602082019050919050565b600060208201905081810360008301526200058e816200054c565b9050919050565b7f50726573616c653a2077616c6c657420697320746865207a65726f206164647260008201527f6573730000000000000000000000000000000000000000000000000000000000602082015250565b6000620005f360238362000512565b9150620006008262000595565b604082019050919050565b600060208201905081810360008301526200062681620005e4565b9050919050565b7f50726573616c653a20746f6b656e20697320746865207a65726f20616464726560008201527f7373000000000000000000000000000000000000000000000000000000000000602082015250565b60006200068b60228362000512565b915062000698826200062d565b604082019050919050565b60006020820190508181036000830152620006be816200067c565b9050919050565b6117eb80620006d56000396000f3fe6080604052600436106101025760003560e01c8063715018a611610095578063a482171911610064578063a482171914610314578063c4ae31681461031e578063dc58a56c14610349578063f2fde38b14610374578063f3fef3a31461039d57610111565b8063715018a61461027e578063893d20e8146102955780638da5cb5b146102c05780638daaa881146102eb57610111565b806356f0889c116100d157806356f0889c146101c25780635b19349e146101ff57806361241c281461022a5780636d6a60321461025357610111565b80630592a6121461011657806312065fe0146101415780633e2d70041461016c5780634e69d5601461019757610111565b366101115761010f6103b9565b005b600080fd5b34801561012257600080fd5b5061012b610708565b6040516101389190610ee7565b60405180910390f35b34801561014d57600080fd5b50610156610712565b6040516101639190610ee7565b60405180910390f35b34801561017857600080fd5b5061018161071a565b60405161018e9190610ee7565b60405180910390f35b3480156101a357600080fd5b506101ac610724565b6040516101b99190610f1d565b60405180910390f35b3480156101ce57600080fd5b506101e960048036038101906101e49190610f69565b61073b565b6040516101f69190610ee7565b60405180910390f35b34801561020b57600080fd5b5061021461081d565b6040516102219190610ee7565b60405180910390f35b34801561023657600080fd5b50610251600480360381019061024c9190610f69565b610864565b005b34801561025f57600080fd5b5061026861092f565b6040516102759190610ee7565b60405180910390f35b34801561028a57600080fd5b50610293610939565b005b3480156102a157600080fd5b506102aa6109c1565b6040516102b79190610fd7565b60405180910390f35b3480156102cc57600080fd5b506102d56109d0565b6040516102e29190610fd7565b60405180910390f35b3480156102f757600080fd5b50610312600480360381019061030d9190610f69565b6109f9565b005b61031c6103b9565b005b34801561032a57600080fd5b50610333610ac4565b6040516103409190610f1d565b60405180910390f35b34801561035557600080fd5b5061035e610b81565b60405161036b9190610ee7565b60405180910390f35b34801561038057600080fd5b5061039b6004803603810190610396919061101e565b610b8b565b005b6103b760048036038101906103b2919061104b565b610c83565b005b60001515600560009054906101000a900460ff1615151461040f576040517f08c379a0000000000000000000000000000000000000000000000000000000008152600401610406906110e8565b60405180910390fd5b600754341015610454576040517f08c379a000000000000000000000000000000000000000000000000000000000815260040161044b90611154565b60405180910390fd5b6008546104a934600a60003373ffffffffffffffffffffffffffffffffffffffff1673ffffffffffffffffffffffffffffffffffffffff16815260200190815260200160002054610daa90919063ffffffff16565b106104e9576040517f08c379a00000000000000000000000000000000000000000000000000000000081526004016104e0906111c0565b60405180910390fd5b60006104f43461073b565b9050600360009054906101000a900473ffffffffffffffffffffffffffffffffffffffff1673ffffffffffffffffffffffffffffffffffffffff166108fc349081150290604051600060405180830381858888f1935050505015801561055e573d6000803e3d6000fd5b50600260009054906101000a900473ffffffffffffffffffffffffffffffffffffffff1673ffffffffffffffffffffffffffffffffffffffff1663a9059cbb33836040518363ffffffff1660e01b81526004016105bc9291906111e0565b6020604051808303816000875af11580156105db573d6000803e3d6000fd5b505050506040513d601f19601f820116820180604052508101906105ff9190611235565b61063e576040517f08c379a0000000000000000000000000000000000000000000000000000000008152600401610635906112d4565b60405180910390fd5b61065334600454610daa90919063ffffffff16565b6004819055506106ab34600a60003373ffffffffffffffffffffffffffffffffffffffff1673ffffffffffffffffffffffffffffffffffffffff16815260200190815260200160002054610daa90919063ffffffff16565b600a60003373ffffffffffffffffffffffffffffffffffffffff1673ffffffffffffffffffffffffffffffffffffffff168152602001908152602001600020819055506107046001600954610daa90919063ffffffff16565b5050565b6000600454905090565b600047905090565b6000600154905090565b6000600560009054906101000a900460ff16905090565b60006108166107e7600260009054906101000a900473ffffffffffffffffffffffffffffffffffffffff1673ffffffffffffffffffffffffffffffffffffffff1663313ce5676040518163ffffffff1660e01b8152600401602060405180830381865afa1580156107b0573d6000803e3d6000fd5b505050506040513d601f19601f820116820180604052508101906107d4919061132d565b60ff166012610dc090919063ffffffff16565b600a6107f391906114bc565b61080860015485610dd690919063ffffffff16565b610dec90919063ffffffff16565b9050919050565b6000600a60003373ffffffffffffffffffffffffffffffffffffffff1673ffffffffffffffffffffffffffffffffffffffff16815260200190815260200160002054905090565b61086c610e02565b73ffffffffffffffffffffffffffffffffffffffff1661088a6109d0565b73ffffffffffffffffffffffffffffffffffffffff16146108e0576040517f08c379a00000000000000000000000000000000000000000000000000000000081526004016108d790611553565b60405180910390fd5b8060008111610924576040517f08c379a000000000000000000000000000000000000000000000000000000000815260040161091b906115bf565b60405180910390fd5b816001819055505050565b6000600654905090565b610941610e02565b73ffffffffffffffffffffffffffffffffffffffff1661095f6109d0565b73ffffffffffffffffffffffffffffffffffffffff16146109b5576040517f08c379a00000000000000000000000000000000000000000000000000000000081526004016109ac90611553565b60405180910390fd5b6109bf6000610e0a565b565b60006109cb6109d0565b905090565b60008060009054906101000a900473ffffffffffffffffffffffffffffffffffffffff16905090565b610a01610e02565b73ffffffffffffffffffffffffffffffffffffffff16610a1f6109d0565b73ffffffffffffffffffffffffffffffffffffffff1614610a75576040517f08c379a0000000000000000000000000000000000000000000000000000000008152600401610a6c90611553565b60405180910390fd5b8060008111610ab9576040517f08c379a0000000000000000000000000000000000000000000000000000000008152600401610ab0906115bf565b60405180910390fd5b816006819055505050565b6000610ace610e02565b73ffffffffffffffffffffffffffffffffffffffff16610aec6109d0565b73ffffffffffffffffffffffffffffffffffffffff1614610b42576040517f08c379a0000000000000000000000000000000000000000000000000000000008152600401610b3990611553565b60405180910390fd5b600560009054906101000a900460ff1615600560006101000a81548160ff021916908315150217905550600560009054906101000a900460ff16905090565b6000600954905090565b610b93610e02565b73ffffffffffffffffffffffffffffffffffffffff16610bb16109d0565b73ffffffffffffffffffffffffffffffffffffffff1614610c07576040517f08c379a0000000000000000000000000000000000000000000000000000000008152600401610bfe90611553565b60405180910390fd5b600073ffffffffffffffffffffffffffffffffffffffff168173ffffffffffffffffffffffffffffffffffffffff161415610c77576040517f08c379a0000000000000000000000000000000000000000000000000000000008152600401610c6e90611651565b60405180910390fd5b610c8081610e0a565b50565b610c8b610e02565b73ffffffffffffffffffffffffffffffffffffffff16610ca96109d0565b73ffffffffffffffffffffffffffffffffffffffff1614610cff576040517f08c379a0000000000000000000000000000000000000000000000000000000008152600401610cf690611553565b60405180910390fd5b6000479050600073ffffffffffffffffffffffffffffffffffffffff168373ffffffffffffffffffffffffffffffffffffffff161415610d4457610d416109d0565b92505b60008211610d50578091505b8181610d5c9190611671565b90508273ffffffffffffffffffffffffffffffffffffffff166108fc839081150290604051600060405180830381858888f19350505050158015610da4573d6000803e3d6000fd5b50505050565b60008183610db891906116a5565b905092915050565b60008183610dce9190611671565b905092915050565b60008183610de491906116fb565b905092915050565b60008183610dfa9190611784565b905092915050565b600033905090565b60008060009054906101000a900473ffffffffffffffffffffffffffffffffffffffff169050816000806101000a81548173ffffffffffffffffffffffffffffffffffffffff021916908373ffffffffffffffffffffffffffffffffffffffff1602179055508173ffffffffffffffffffffffffffffffffffffffff168173ffffffffffffffffffffffffffffffffffffffff167f8be0079c531659141344cd1fd0a4f28419497f9722a3daafe3b4186f6b6457e060405160405180910390a35050565b6000819050919050565b610ee181610ece565b82525050565b6000602082019050610efc6000830184610ed8565b92915050565b60008115159050919050565b610f1781610f02565b82525050565b6000602082019050610f326000830184610f0e565b92915050565b600080fd5b610f4681610ece565b8114610f5157600080fd5b50565b600081359050610f6381610f3d565b92915050565b600060208284031215610f7f57610f7e610f38565b5b6000610f8d84828501610f54565b91505092915050565b600073ffffffffffffffffffffffffffffffffffffffff82169050919050565b6000610fc182610f96565b9050919050565b610fd181610fb6565b82525050565b6000602082019050610fec6000830184610fc8565b92915050565b610ffb81610fb6565b811461100657600080fd5b50565b60008135905061101881610ff2565b92915050565b60006020828403121561103457611033610f38565b5b600061104284828501611009565b91505092915050565b6000806040838503121561106257611061610f38565b5b600061107085828601611009565b925050602061108185828601610f54565b9150509250929050565b600082825260208201905092915050565b7f50726573616c653a2050726573616c6520697320706175736564000000000000600082015250565b60006110d2601a8361108b565b91506110dd8261109c565b602082019050919050565b60006020820190508181036000830152611101816110c5565b9050919050565b7f50726573616c653a20427579207175616e74697479206973206c6f7700000000600082015250565b600061113e601c8361108b565b915061114982611108565b602082019050919050565b6000602082019050818103600083015261116d81611131565b9050919050565b7f50726573616c653a2041747461696e6564206d61782063617000000000000000600082015250565b60006111aa60198361108b565b91506111b582611174565b602082019050919050565b600060208201905081810360008301526111d98161119d565b9050919050565b60006040820190506111f56000830185610fc8565b6112026020830184610ed8565b9392505050565b61121281610f02565b811461121d57600080fd5b50565b60008151905061122f81611209565b92915050565b60006020828403121561124b5761124a610f38565b5b600061125984828501611220565b91505092915050565b7f496e73756666696369656e742062616c616e6365206f662070726573616c652060008201527f636f6e7472616374210000000000000000000000000000000000000000000000602082015250565b60006112be60298361108b565b91506112c982611262565b604082019050919050565b600060208201905081810360008301526112ed816112b1565b9050919050565b600060ff82169050919050565b61130a816112f4565b811461131557600080fd5b50565b60008151905061132781611301565b92915050565b60006020828403121561134357611342610f38565b5b600061135184828501611318565b91505092915050565b7f4e487b7100000000000000000000000000000000000000000000000000000000600052601160045260246000fd5b60008160011c9050919050565b6000808291508390505b60018511156113e0578086048111156113bc576113bb61135a565b5b60018516156113cb5780820291505b80810290506113d985611389565b94506113a0565b94509492505050565b6000826113f957600190506114b5565b8161140757600090506114b5565b816001811461141d576002811461142757611456565b60019150506114b5565b60ff8411156114395761143861135a565b5b8360020a9150848211156114505761144f61135a565b5b506114b5565b5060208310610133831016604e8410600b841016171561148b5782820a9050838111156114865761148561135a565b5b6114b5565b6114988484846001611396565b925090508184048111156114af576114ae61135a565b5b81810290505b9392505050565b60006114c782610ece565b91506114d283610ece565b92506114ff7fffffffffffffffffffffffffffffffffffffffffffffffffffffffffffffffff84846113e9565b905092915050565b7f4f776e61626c653a2063616c6c6572206973206e6f7420746865206f776e6572600082015250565b600061153d60208361108b565b915061154882611507565b602082019050919050565b6000602082019050818103600083015261156c81611530565b9050919050565b7f50726573616c653a2076616c7565206973203000000000000000000000000000600082015250565b60006115a960138361108b565b91506115b482611573565b602082019050919050565b600060208201905081810360008301526115d88161159c565b9050919050565b7f4f776e61626c653a206e6577206f776e657220697320746865207a65726f206160008201527f6464726573730000000000000000000000000000000000000000000000000000602082015250565b600061163b60268361108b565b9150611646826115df565b604082019050919050565b6000602082019050818103600083015261166a8161162e565b9050919050565b600061167c82610ece565b915061168783610ece565b92508282101561169a5761169961135a565b5b828203905092915050565b60006116b082610ece565b91506116bb83610ece565b9250827fffffffffffffffffffffffffffffffffffffffffffffffffffffffffffffffff038211156116f0576116ef61135a565b5b828201905092915050565b600061170682610ece565b915061171183610ece565b9250817fffffffffffffffffffffffffffffffffffffffffffffffffffffffffffffffff048311821515161561174a5761174961135a565b5b828202905092915050565b7f4e487b7100000000000000000000000000000000000000000000000000000000600052601260045260246000fd5b600061178f82610ece565b915061179a83610ece565b9250826117aa576117a9611755565b5b82820490509291505056fea26469706673582212207d6ec327ce08c932e6620a65d68d39c54de552869ca17e9ccd0a38e0178c66ef64736f6c634300080c0033",
  "immutableReferences": {},
  "source": "//SPDX-License-Identifier:UNLICENSED\npragma solidity ^0.8.12;\n\nimport \"@openzeppelin/contracts/token/ERC20/extensions/IERC20Metadata.sol\";\nimport \"@openzeppelin/contracts/utils/math/SafeMath.sol\";\nimport \"@openzeppelin/contracts/access/Ownable.sol\";\n\n/*\ntogglePause - Pause the presale activities\n\nFund - Fund account\nWithdraw - Withdraw from the account\nbuy - Buy tokens from the account\nsetEndTime - Modify the endate of the presale period\nsetTokenRate - Modity the rate at which the token is sold per Eth | Eth\n*/\n\ncontract Presale is Ownable {\n    using SafeMath for uint256;\n    uint256 rate;\n    IERC20Metadata Token;\n    address wallet;\n\n    uint256 totalReceived; // Total Eth/ETH Received\n\n    bool allowed;\n    uint256 endate = block.timestamp + 7 days;\n    uint256 minPurchase = (10**9); //0.5 Eth/ETH\n    uint256 purchaseCap = (100 * 10**18); // 100 ETH/Eth\n\n    uint256 totalContributors = 0;\n    mapping(address => uint256) contributors;\n\n    // struct Contribution {\n    //     uint256 time;\n    //     uint256 amount;\n    //     address account\n    // }\n    // Contribution[] constructions;\n\n    constructor(\n        uint256 _rate, //Qty of coin to swap for 1 wei or 1 Eth during the ICO\n        address payable _wallet, //this Contract Address for investors to send Ether or Eth in other to recive ERC token in Exchange\n        IERC20Metadata _token // Pointer to the ERC20 token that would be sent to investors\n    ) notZero(_rate) {\n        require(_wallet != address(0), \"Presale: wallet is the zero address\");\n        require(\n            address(_token) != address(0),\n            \"Presale: token is the zero address\"\n        );\n\n        rate = _rate;\n        wallet = _wallet;\n        Token = _token;\n        allowed = true;\n    }\n\n    modifier notZero(uint256 _value) {\n        require(_value > 0, \"Presale: value is 0\");\n        _;\n    }\n\n    function getOwner() external view returns (address) {\n        return owner();\n    }\n\n    function getTotalReceived() external view returns (uint256) {\n        return totalReceived;\n    }\n\n    function getTotalContributors() external view returns (uint256) {\n        return totalContributors;\n    }\n\n    // function getTotalContributions() external view returns (uint256) {\n    //     return constructions;\n    // }\n\n    function getUserContribution() external view returns (uint256) {\n        return contributors[msg.sender];\n    }\n\n    function getEndate() external view returns (uint256) {\n        return endate;\n    }\n\n    function setEndate(uint256 _enddate) external onlyOwner notZero(_enddate) {\n        endate = _enddate;\n    }\n\n    // Set token rate\n    function setTokenRate(uint256 _rate) external onlyOwner notZero(_rate) {\n        rate = _rate;\n    }\n\n    // Get token rate\n    function getTokenRate() external view returns (uint256) {\n        return rate;\n    }\n\n    // Get the status of the Presale\n    function getStatus() external view returns (bool) {\n        return allowed;\n    }\n\n    // Pause or Open Presale\n    function togglePause() external onlyOwner returns (bool) {\n        allowed = !allowed;\n        return allowed;\n    }\n\n    //Get balance of tokens remaing in this presale Contract\n    function getBalance() external view returns (uint256) {\n        return address(this).balance;\n    }\n\n    // Deposit some tokens into this presale contract\n    receive() external payable {\n        buyToken();\n    }\n\n    // Withdraw money from the presale contract\n    function withdraw(address _wallet, uint256 _amount)\n        external\n        payable\n        onlyOwner\n    {\n        uint256 balance = address(this).balance;\n        if (_wallet == address(0)) _wallet = owner();\n        if (_amount <= 0) _amount = balance;\n\n        balance = balance - _amount;\n        payable(address(_wallet)).transfer(_amount);\n    }\n\n    // Buy token\n    /**\n     * @dev recieves Eth and requires some token to be transfered to the msg.sender\n     */\n    function buyToken() public payable {\n        // Make sure presale is currently not paused\n        require(allowed == false, \"Presale: Presale is paused\");\n        // Must send more that minEth\n        require(msg.value >= minPurchase, \"Presale: Buy quantity is low\");\n        // Sender doesn't exceed maxCap\n        require(\n            contributors[msg.sender].add(msg.value) < purchaseCap,\n            \"Presale: Attained max cap\"\n        );\n        // Get token value\n        uint256 tokenQuantity = getTokensPerEth(msg.value);\n\n        // Recieve the Ethereum into our wallet\n        payable(wallet).transfer(msg.value);\n\n        // Pay the sender in our token\n        require(\n            Token.transfer(msg.sender, tokenQuantity),\n            \"Insufficient balance of presale contract!\"\n        );\n\n        totalReceived = totalReceived.add(msg.value);\n        contributors[msg.sender] = contributors[msg.sender].add(msg.value);\n        totalContributors.add(1);\n        // constructions.push(Contribution(block.timestamp, msg.value, msg.sender));\n    }\n\n    function getTokensPerEth(uint256 weiVal) public view returns (uint256) {\n        return weiVal.mul(rate).div(10**(uint256(18).sub(Token.decimals())));\n    }\n}\n",
  "sourcePath": "/Users/clinton/Sites/primedex/smart-contract/contracts/Presale.sol",
  "compiler": {
    "name": "solc",
    "version": "0.8.12+commit.f00d7308.Emscripten.clang"
  },
  "schemaVersion": "3.4.7",
  "updatedAt": "2022-05-27T11:54:42.467Z",
  "networkType": "ethereum",
  "devdoc": {
    "kind": "dev",
    "methods": {
      "buyToken()": {
        "details": "recieves Eth and requires some token to be transfered to the msg.sender"
      },
      "owner()": {
        "details": "Returns the address of the current owner."
      },
      "renounceOwnership()": {
        "details": "Leaves the contract without owner. It will not be possible to call `onlyOwner` functions anymore. Can only be called by the current owner. NOTE: Renouncing ownership will leave the contract without an owner, thereby removing any functionality that is only available to the owner."
      },
      "transferOwnership(address)": {
        "details": "Transfers ownership of the contract to a new account (`newOwner`). Can only be called by the current owner."
      }
    },
    "version": 1
  },
  "userdoc": {
    "kind": "user",
    "methods": {},
    "version": 1
  }
}