{
  "contractName": "TestToken",
  "abi": [
    {
      "inputs": [
        {
          "internalType": "string",
          "name": "name",
          "type": "string"
        },
        {
          "internalType": "string",
          "name": "symbol",
          "type": "string"
        },
        {
          "internalType": "uint256",
          "name": "initailSupply",
          "type": "uint256"
        }
      ],
      "stateMutability": "nonpayable",
      "type": "constructor"
    },
    {
      "anonymous": false,
      "inputs": [
        {
          "indexed": true,
          "internalType": "address",
          "name": "owner",
          "type": "address"
        },
        {
          "indexed": true,
          "internalType": "address",
          "name": "spender",
          "type": "address"
        },
        {
          "indexed": false,
          "internalType": "uint256",
          "name": "value",
          "type": "uint256"
        }
      ],
      "name": "Approval",
      "type": "event"
    },
    {
      "anonymous": false,
      "inputs": [
        {
          "indexed": true,
          "internalType": "address",
          "name": "previousOwner",
          "type": "address"
        },
        {
          "indexed": true,
          "internalType": "address",
          "name": "newOwner",
          "type": "address"
        }
      ],
      "name": "OwnershipTransferred",
      "type": "event"
    },
    {
      "anonymous": false,
      "inputs": [
        {
          "indexed": true,
          "internalType": "address",
          "name": "from",
          "type": "address"
        },
        {
          "indexed": true,
          "internalType": "address",
          "name": "to",
          "type": "address"
        },
        {
          "indexed": false,
          "internalType": "uint256",
          "name": "value",
          "type": "uint256"
        }
      ],
      "name": "Transfer",
      "type": "event"
    },
    {
      "inputs": [
        {
          "internalType": "address",
          "name": "owner",
          "type": "address"
        },
        {
          "internalType": "address",
          "name": "spender",
          "type": "address"
        }
      ],
      "name": "allowance",
      "outputs": [
        {
          "internalType": "uint256",
          "name": "",
          "type": "uint256"
        }
      ],
      "stateMutability": "view",
      "type": "function",
      "constant": true
    },
    {
      "inputs": [
        {
          "internalType": "address",
          "name": "spender",
          "type": "address"
        },
        {
          "internalType": "uint256",
          "name": "amount",
          "type": "uint256"
        }
      ],
      "name": "approve",
      "outputs": [
        {
          "internalType": "bool",
          "name": "",
          "type": "bool"
        }
      ],
      "stateMutability": "nonpayable",
      "type": "function"
    },
    {
      "inputs": [
        {
          "internalType": "address",
          "name": "account",
          "type": "address"
        }
      ],
      "name": "balanceOf",
      "outputs": [
        {
          "internalType": "uint256",
          "name": "",
          "type": "uint256"
        }
      ],
      "stateMutability": "view",
      "type": "function",
      "constant": true
    },
    {
      "inputs": [],
      "name": "decimals",
      "outputs": [
        {
          "internalType": "uint8",
          "name": "",
          "type": "uint8"
        }
      ],
      "stateMutability": "view",
      "type": "function",
      "constant": true
    },
    {
      "inputs": [
        {
          "internalType": "address",
          "name": "spender",
          "type": "address"
        },
        {
          "internalType": "uint256",
          "name": "subtractedValue",
          "type": "uint256"
        }
      ],
      "name": "decreaseAllowance",
      "outputs": [
        {
          "internalType": "bool",
          "name": "",
          "type": "bool"
        }
      ],
      "stateMutability": "nonpayable",
      "type": "function"
    },
    {
      "inputs": [
        {
          "internalType": "address",
          "name": "spender",
          "type": "address"
        },
        {
          "internalType": "uint256",
          "name": "addedValue",
          "type": "uint256"
        }
      ],
      "name": "increaseAllowance",
      "outputs": [
        {
          "internalType": "bool",
          "name": "",
          "type": "bool"
        }
      ],
      "stateMutability": "nonpayable",
      "type": "function"
    },
    {
      "inputs": [],
      "name": "name",
      "outputs": [
        {
          "internalType": "string",
          "name": "",
          "type": "string"
        }
      ],
      "stateMutability": "view",
      "type": "function",
      "constant": true
    },
    {
      "inputs": [],
      "name": "owner",
      "outputs": [
        {
          "internalType": "address",
          "name": "",
          "type": "address"
        }
      ],
      "stateMutability": "view",
      "type": "function",
      "constant": true
    },
    {
      "inputs": [],
      "name": "renounceOwnership",
      "outputs": [],
      "stateMutability": "nonpayable",
      "type": "function"
    },
    {
      "inputs": [],
      "name": "symbol",
      "outputs": [
        {
          "internalType": "string",
          "name": "",
          "type": "string"
        }
      ],
      "stateMutability": "view",
      "type": "function",
      "constant": true
    },
    {
      "inputs": [],
      "name": "totalSupply",
      "outputs": [
        {
          "internalType": "uint256",
          "name": "",
          "type": "uint256"
        }
      ],
      "stateMutability": "view",
      "type": "function",
      "constant": true
    },
    {
      "inputs": [
        {
          "internalType": "address",
          "name": "to",
          "type": "address"
        },
        {
          "internalType": "uint256",
          "name": "amount",
          "type": "uint256"
        }
      ],
      "name": "transfer",
      "outputs": [
        {
          "internalType": "bool",
          "name": "",
          "type": "bool"
        }
      ],
      "stateMutability": "nonpayable",
      "type": "function"
    },
    {
      "inputs": [
        {
          "internalType": "address",
          "name": "from",
          "type": "address"
        },
        {
          "internalType": "address",
          "name": "to",
          "type": "address"
        },
        {
          "internalType": "uint256",
          "name": "amount",
          "type": "uint256"
        }
      ],
      "name": "transferFrom",
      "outputs": [
        {
          "internalType": "bool",
          "name": "",
          "type": "bool"
        }
      ],
      "stateMutability": "nonpayable",
      "type": "function"
    },
    {
      "inputs": [
        {
          "internalType": "address",
          "name": "newOwner",
          "type": "address"
        }
      ],
      "name": "transferOwnership",
      "outputs": [],
      "stateMutability": "nonpayable",
      "type": "function"
    },
    {
      "inputs": [],
      "name": "getAddress",
      "outputs": [
        {
          "internalType": "address",
          "name": "",
          "type": "address"
        }
      ],
      "stateMutability": "view",
      "type": "function",
      "constant": true
    },
    {
      "inputs": [
        {
          "internalType": "uint256",
          "name": "amount",
          "type": "uint256"
        }
      ],
      "name": "mint",
      "outputs": [],
      "stateMutability": "nonpayable",
      "type": "function"
    }
  ],
  "bytecode": "0x60806040523480156200001157600080fd5b506040516200229a3803806200229a8339818101604052810190620000379190620005e0565b828281600390805190602001906200005192919062000358565b5080600490805190602001906200006a92919062000358565b5050506200008d620000816200010760201b60201c565b6200010f60201b60201c565b6200009d6200010760201b60201c565b600660006101000a81548173ffffffffffffffffffffffffffffffffffffffff021916908373ffffffffffffffffffffffffffffffffffffffff160217905550620000fe620000f16200010760201b60201c565b82620001d560201b60201c565b5050506200081c565b600033905090565b6000600560009054906101000a900473ffffffffffffffffffffffffffffffffffffffff16905081600560006101000a81548173ffffffffffffffffffffffffffffffffffffffff021916908373ffffffffffffffffffffffffffffffffffffffff1602179055508173ffffffffffffffffffffffffffffffffffffffff168173ffffffffffffffffffffffffffffffffffffffff167f8be0079c531659141344cd1fd0a4f28419497f9722a3daafe3b4186f6b6457e060405160405180910390a35050565b600073ffffffffffffffffffffffffffffffffffffffff168273ffffffffffffffffffffffffffffffffffffffff16141562000248576040517f08c379a00000000000000000000000000000000000000000000000000000000081526004016200023f90620006db565b60405180910390fd5b6200025c600083836200034e60201b60201c565b80600260008282546200027091906200072c565b92505081905550806000808473ffffffffffffffffffffffffffffffffffffffff1673ffffffffffffffffffffffffffffffffffffffff1681526020019081526020016000206000828254620002c791906200072c565b925050819055508173ffffffffffffffffffffffffffffffffffffffff16600073ffffffffffffffffffffffffffffffffffffffff167fddf252ad1be2c89b69c2b068fc378daa952ba7f163c4a11628f55a4df523b3ef836040516200032e91906200079a565b60405180910390a36200034a600083836200035360201b60201c565b5050565b505050565b505050565b8280546200036690620007e6565b90600052602060002090601f0160209004810192826200038a5760008555620003d6565b82601f10620003a557805160ff1916838001178555620003d6565b82800160010185558215620003d6579182015b82811115620003d5578251825591602001919060010190620003b8565b5b509050620003e59190620003e9565b5090565b5b8082111562000404576000816000905550600101620003ea565b5090565b6000604051905090565b600080fd5b600080fd5b600080fd5b600080fd5b6000601f19601f8301169050919050565b7f4e487b7100000000000000000000000000000000000000000000000000000000600052604160045260246000fd5b620004718262000426565b810181811067ffffffffffffffff8211171562000493576200049262000437565b5b80604052505050565b6000620004a862000408565b9050620004b6828262000466565b919050565b600067ffffffffffffffff821115620004d957620004d862000437565b5b620004e48262000426565b9050602081019050919050565b60005b8381101562000511578082015181840152602081019050620004f4565b8381111562000521576000848401525b50505050565b60006200053e6200053884620004bb565b6200049c565b9050828152602081018484840111156200055d576200055c62000421565b5b6200056a848285620004f1565b509392505050565b600082601f8301126200058a57620005896200041c565b5b81516200059c84826020860162000527565b91505092915050565b6000819050919050565b620005ba81620005a5565b8114620005c657600080fd5b50565b600081519050620005da81620005af565b92915050565b600080600060608486031215620005fc57620005fb62000412565b5b600084015167ffffffffffffffff8111156200061d576200061c62000417565b5b6200062b8682870162000572565b935050602084015167ffffffffffffffff8111156200064f576200064e62000417565b5b6200065d8682870162000572565b92505060406200067086828701620005c9565b9150509250925092565b600082825260208201905092915050565b7f45524332303a206d696e7420746f20746865207a65726f206164647265737300600082015250565b6000620006c3601f836200067a565b9150620006d0826200068b565b602082019050919050565b60006020820190508181036000830152620006f681620006b4565b9050919050565b7f4e487b7100000000000000000000000000000000000000000000000000000000600052601160045260246000fd5b60006200073982620005a5565b91506200074683620005a5565b9250827fffffffffffffffffffffffffffffffffffffffffffffffffffffffffffffffff038211156200077e576200077d620006fd565b5b828201905092915050565b6200079481620005a5565b82525050565b6000602082019050620007b1600083018462000789565b92915050565b7f4e487b7100000000000000000000000000000000000000000000000000000000600052602260045260246000fd5b60006002820490506001821680620007ff57607f821691505b60208210811415620008165762000815620007b7565b5b50919050565b611a6e806200082c6000396000f3fe608060405234801561001057600080fd5b50600436106101005760003560e01c8063715018a611610097578063a457c2d711610066578063a457c2d71461029f578063a9059cbb146102cf578063dd62ed3e146102ff578063f2fde38b1461032f57610100565b8063715018a61461023d5780638da5cb5b1461024757806395d89b4114610265578063a0712d681461028357610100565b8063313ce567116100d3578063313ce567146101a157806338cc4831146101bf57806339509351146101dd57806370a082311461020d57610100565b806306fdde0314610105578063095ea7b31461012357806318160ddd1461015357806323b872dd14610171575b600080fd5b61010d61034b565b60405161011a9190611167565b60405180910390f35b61013d60048036038101906101389190611222565b6103dd565b60405161014a919061127d565b60405180910390f35b61015b610400565b60405161016891906112a7565b60405180910390f35b61018b600480360381019061018691906112c2565b61040a565b604051610198919061127d565b60405180910390f35b6101a9610439565b6040516101b69190611331565b60405180910390f35b6101c7610442565b6040516101d4919061135b565b60405180910390f35b6101f760048036038101906101f29190611222565b61046c565b604051610204919061127d565b60405180910390f35b61022760048036038101906102229190611376565b610516565b60405161023491906112a7565b60405180910390f35b61024561055e565b005b61024f6105e6565b60405161025c919061135b565b60405180910390f35b61026d610610565b60405161027a9190611167565b60405180910390f35b61029d600480360381019061029891906113a3565b6106a2565b005b6102b960048036038101906102b49190611222565b610732565b6040516102c6919061127d565b60405180910390f35b6102e960048036038101906102e49190611222565b61081c565b6040516102f6919061127d565b60405180910390f35b610319600480360381019061031491906113d0565b61083f565b60405161032691906112a7565b60405180910390f35b61034960048036038101906103449190611376565b6108c6565b005b60606003805461035a9061143f565b80601f01602080910402602001604051908101604052809291908181526020018280546103869061143f565b80156103d35780601f106103a8576101008083540402835291602001916103d3565b820191906000526020600020905b8154815290600101906020018083116103b657829003601f168201915b5050505050905090565b6000806103e86109be565b90506103f58185856109c6565b600191505092915050565b6000600254905090565b6000806104156109be565b9050610422858285610b91565b61042d858585610c1d565b60019150509392505050565b60006012905090565b6000600660009054906101000a900473ffffffffffffffffffffffffffffffffffffffff16905090565b6000806104776109be565b905061050b818585600160008673ffffffffffffffffffffffffffffffffffffffff1673ffffffffffffffffffffffffffffffffffffffff16815260200190815260200160002060008973ffffffffffffffffffffffffffffffffffffffff1673ffffffffffffffffffffffffffffffffffffffff1681526020019081526020016000205461050691906114a0565b6109c6565b600191505092915050565b60008060008373ffffffffffffffffffffffffffffffffffffffff1673ffffffffffffffffffffffffffffffffffffffff168152602001908152602001600020549050919050565b6105666109be565b73ffffffffffffffffffffffffffffffffffffffff166105846105e6565b73ffffffffffffffffffffffffffffffffffffffff16146105da576040517f08c379a00000000000000000000000000000000000000000000000000000000081526004016105d190611542565b60405180910390fd5b6105e46000610e9e565b565b6000600560009054906101000a900473ffffffffffffffffffffffffffffffffffffffff16905090565b60606004805461061f9061143f565b80601f016020809104026020016040519081016040528092919081815260200182805461064b9061143f565b80156106985780601f1061066d57610100808354040283529160200191610698565b820191906000526020600020905b81548152906001019060200180831161067b57829003601f168201915b5050505050905090565b6106aa6109be565b73ffffffffffffffffffffffffffffffffffffffff166106c86105e6565b73ffffffffffffffffffffffffffffffffffffffff161461071e576040517f08c379a000000000000000000000000000000000000000000000000000000000815260040161071590611542565b60405180910390fd5b61072f6107296109be565b82610f64565b50565b60008061073d6109be565b90506000600160008373ffffffffffffffffffffffffffffffffffffffff1673ffffffffffffffffffffffffffffffffffffffff16815260200190815260200160002060008673ffffffffffffffffffffffffffffffffffffffff1673ffffffffffffffffffffffffffffffffffffffff16815260200190815260200160002054905083811015610803576040517f08c379a00000000000000000000000000000000000000000000000000000000081526004016107fa906115d4565b60405180910390fd5b61081082868684036109c6565b60019250505092915050565b6000806108276109be565b9050610834818585610c1d565b600191505092915050565b6000600160008473ffffffffffffffffffffffffffffffffffffffff1673ffffffffffffffffffffffffffffffffffffffff16815260200190815260200160002060008373ffffffffffffffffffffffffffffffffffffffff1673ffffffffffffffffffffffffffffffffffffffff16815260200190815260200160002054905092915050565b6108ce6109be565b73ffffffffffffffffffffffffffffffffffffffff166108ec6105e6565b73ffffffffffffffffffffffffffffffffffffffff1614610942576040517f08c379a000000000000000000000000000000000000000000000000000000000815260040161093990611542565b60405180910390fd5b600073ffffffffffffffffffffffffffffffffffffffff168173ffffffffffffffffffffffffffffffffffffffff1614156109b2576040517f08c379a00000000000000000000000000000000000000000000000000000000081526004016109a990611666565b60405180910390fd5b6109bb81610e9e565b50565b600033905090565b600073ffffffffffffffffffffffffffffffffffffffff168373ffffffffffffffffffffffffffffffffffffffff161415610a36576040517f08c379a0000000000000000000000000000000000000000000000000000000008152600401610a2d906116f8565b60405180910390fd5b600073ffffffffffffffffffffffffffffffffffffffff168273ffffffffffffffffffffffffffffffffffffffff161415610aa6576040517f08c379a0000000000000000000000000000000000000000000000000000000008152600401610a9d9061178a565b60405180910390fd5b80600160008573ffffffffffffffffffffffffffffffffffffffff1673ffffffffffffffffffffffffffffffffffffffff16815260200190815260200160002060008473ffffffffffffffffffffffffffffffffffffffff1673ffffffffffffffffffffffffffffffffffffffff168152602001908152602001600020819055508173ffffffffffffffffffffffffffffffffffffffff168373ffffffffffffffffffffffffffffffffffffffff167f8c5be1e5ebec7d5bd14f71427d1e84f3dd0314c0f7b2291e5b200ac8c7c3b92583604051610b8491906112a7565b60405180910390a3505050565b6000610b9d848461083f565b90507fffffffffffffffffffffffffffffffffffffffffffffffffffffffffffffffff8114610c175781811015610c09576040517f08c379a0000000000000000000000000000000000000000000000000000000008152600401610c00906117f6565b60405180910390fd5b610c1684848484036109c6565b5b50505050565b600073ffffffffffffffffffffffffffffffffffffffff168373ffffffffffffffffffffffffffffffffffffffff161415610c8d576040517f08c379a0000000000000000000000000000000000000000000000000000000008152600401610c8490611888565b60405180910390fd5b600073ffffffffffffffffffffffffffffffffffffffff168273ffffffffffffffffffffffffffffffffffffffff161415610cfd576040517f08c379a0000000000000000000000000000000000000000000000000000000008152600401610cf49061191a565b60405180910390fd5b610d088383836110c4565b60008060008573ffffffffffffffffffffffffffffffffffffffff1673ffffffffffffffffffffffffffffffffffffffff16815260200190815260200160002054905081811015610d8e576040517f08c379a0000000000000000000000000000000000000000000000000000000008152600401610d85906119ac565b60405180910390fd5b8181036000808673ffffffffffffffffffffffffffffffffffffffff1673ffffffffffffffffffffffffffffffffffffffff16815260200190815260200160002081905550816000808573ffffffffffffffffffffffffffffffffffffffff1673ffffffffffffffffffffffffffffffffffffffff1681526020019081526020016000206000828254610e2191906114a0565b925050819055508273ffffffffffffffffffffffffffffffffffffffff168473ffffffffffffffffffffffffffffffffffffffff167fddf252ad1be2c89b69c2b068fc378daa952ba7f163c4a11628f55a4df523b3ef84604051610e8591906112a7565b60405180910390a3610e988484846110c9565b50505050565b6000600560009054906101000a900473ffffffffffffffffffffffffffffffffffffffff16905081600560006101000a81548173ffffffffffffffffffffffffffffffffffffffff021916908373ffffffffffffffffffffffffffffffffffffffff1602179055508173ffffffffffffffffffffffffffffffffffffffff168173ffffffffffffffffffffffffffffffffffffffff167f8be0079c531659141344cd1fd0a4f28419497f9722a3daafe3b4186f6b6457e060405160405180910390a35050565b600073ffffffffffffffffffffffffffffffffffffffff168273ffffffffffffffffffffffffffffffffffffffff161415610fd4576040517f08c379a0000000000000000000000000000000000000000000000000000000008152600401610fcb90611a18565b60405180910390fd5b610fe0600083836110c4565b8060026000828254610ff291906114a0565b92505081905550806000808473ffffffffffffffffffffffffffffffffffffffff1673ffffffffffffffffffffffffffffffffffffffff168152602001908152602001600020600082825461104791906114a0565b925050819055508173ffffffffffffffffffffffffffffffffffffffff16600073ffffffffffffffffffffffffffffffffffffffff167fddf252ad1be2c89b69c2b068fc378daa952ba7f163c4a11628f55a4df523b3ef836040516110ac91906112a7565b60405180910390a36110c0600083836110c9565b5050565b505050565b505050565b600081519050919050565b600082825260208201905092915050565b60005b838110156111085780820151818401526020810190506110ed565b83811115611117576000848401525b50505050565b6000601f19601f8301169050919050565b6000611139826110ce565b61114381856110d9565b93506111538185602086016110ea565b61115c8161111d565b840191505092915050565b60006020820190508181036000830152611181818461112e565b905092915050565b600080fd5b600073ffffffffffffffffffffffffffffffffffffffff82169050919050565b60006111b98261118e565b9050919050565b6111c9816111ae565b81146111d457600080fd5b50565b6000813590506111e6816111c0565b92915050565b6000819050919050565b6111ff816111ec565b811461120a57600080fd5b50565b60008135905061121c816111f6565b92915050565b6000806040838503121561123957611238611189565b5b6000611247858286016111d7565b92505060206112588582860161120d565b9150509250929050565b60008115159050919050565b61127781611262565b82525050565b6000602082019050611292600083018461126e565b92915050565b6112a1816111ec565b82525050565b60006020820190506112bc6000830184611298565b92915050565b6000806000606084860312156112db576112da611189565b5b60006112e9868287016111d7565b93505060206112fa868287016111d7565b925050604061130b8682870161120d565b9150509250925092565b600060ff82169050919050565b61132b81611315565b82525050565b60006020820190506113466000830184611322565b92915050565b611355816111ae565b82525050565b6000602082019050611370600083018461134c565b92915050565b60006020828403121561138c5761138b611189565b5b600061139a848285016111d7565b91505092915050565b6000602082840312156113b9576113b8611189565b5b60006113c78482850161120d565b91505092915050565b600080604083850312156113e7576113e6611189565b5b60006113f5858286016111d7565b9250506020611406858286016111d7565b9150509250929050565b7f4e487b7100000000000000000000000000000000000000000000000000000000600052602260045260246000fd5b6000600282049050600182168061145757607f821691505b6020821081141561146b5761146a611410565b5b50919050565b7f4e487b7100000000000000000000000000000000000000000000000000000000600052601160045260246000fd5b60006114ab826111ec565b91506114b6836111ec565b9250827fffffffffffffffffffffffffffffffffffffffffffffffffffffffffffffffff038211156114eb576114ea611471565b5b828201905092915050565b7f4f776e61626c653a2063616c6c6572206973206e6f7420746865206f776e6572600082015250565b600061152c6020836110d9565b9150611537826114f6565b602082019050919050565b6000602082019050818103600083015261155b8161151f565b9050919050565b7f45524332303a2064656372656173656420616c6c6f77616e63652062656c6f7760008201527f207a65726f000000000000000000000000000000000000000000000000000000602082015250565b60006115be6025836110d9565b91506115c982611562565b604082019050919050565b600060208201905081810360008301526115ed816115b1565b9050919050565b7f4f776e61626c653a206e6577206f776e657220697320746865207a65726f206160008201527f6464726573730000000000000000000000000000000000000000000000000000602082015250565b60006116506026836110d9565b915061165b826115f4565b604082019050919050565b6000602082019050818103600083015261167f81611643565b9050919050565b7f45524332303a20617070726f76652066726f6d20746865207a65726f2061646460008201527f7265737300000000000000000000000000000000000000000000000000000000602082015250565b60006116e26024836110d9565b91506116ed82611686565b604082019050919050565b60006020820190508181036000830152611711816116d5565b9050919050565b7f45524332303a20617070726f766520746f20746865207a65726f20616464726560008201527f7373000000000000000000000000000000000000000000000000000000000000602082015250565b60006117746022836110d9565b915061177f82611718565b604082019050919050565b600060208201905081810360008301526117a381611767565b9050919050565b7f45524332303a20696e73756666696369656e7420616c6c6f77616e6365000000600082015250565b60006117e0601d836110d9565b91506117eb826117aa565b602082019050919050565b6000602082019050818103600083015261180f816117d3565b9050919050565b7f45524332303a207472616e736665722066726f6d20746865207a65726f20616460008201527f6472657373000000000000000000000000000000000000000000000000000000602082015250565b60006118726025836110d9565b915061187d82611816565b604082019050919050565b600060208201905081810360008301526118a181611865565b9050919050565b7f45524332303a207472616e7366657220746f20746865207a65726f206164647260008201527f6573730000000000000000000000000000000000000000000000000000000000602082015250565b60006119046023836110d9565b915061190f826118a8565b604082019050919050565b60006020820190508181036000830152611933816118f7565b9050919050565b7f45524332303a207472616e7366657220616d6f756e742065786365656473206260008201527f616c616e63650000000000000000000000000000000000000000000000000000602082015250565b60006119966026836110d9565b91506119a18261193a565b604082019050919050565b600060208201905081810360008301526119c581611989565b9050919050565b7f45524332303a206d696e7420746f20746865207a65726f206164647265737300600082015250565b6000611a02601f836110d9565b9150611a0d826119cc565b602082019050919050565b60006020820190508181036000830152611a31816119f5565b905091905056fea2646970667358221220d231351e44adfe8b13a42affae8254ccf74b061365f1bbafd48e25075901cbec64736f6c634300080c0033",
  "immutableReferences": {},
  "source": "// SPDX-License-Identifier: MIT\npragma solidity ^0.8.12;\n\nimport \"@openzeppelin/contracts/token/ERC20/ERC20.sol\";\nimport \"@openzeppelin/contracts/utils/Context.sol\";\nimport \"@openzeppelin/contracts/access/Ownable.sol\";\n\ncontract TestToken is Context, ERC20, Ownable {\n    address thisowner;\n\n    constructor(\n        string memory name, //Name of the token\n        string memory symbol, //Token symbol\n        uint256 initailSupply\n    ) ERC20(name, symbol) {\n        thisowner = _msgSender();\n        _mint(_msgSender(), initailSupply);\n    }\n\n    // Get Address of the Owner\n    function getAddress() public view returns (address) {\n        return thisowner;\n    }\n\n    // Mint Extra token\n    function mint(uint256 amount) public onlyOwner {\n        _mint(_msgSender(), amount);\n    }\n}\n",
  "sourcePath": "/Users/clinton/Sites/primedex/smart-contract/contracts/TestToken.sol",
  "compiler": {
    "name": "solc",
    "version": "0.8.12+commit.f00d7308.Emscripten.clang"
  },
  "schemaVersion": "3.4.7",
  "updatedAt": "2022-05-27T11:54:42.456Z",
  "networkType": "ethereum",
  "devdoc": {
    "kind": "dev",
    "methods": {
      "allowance(address,address)": {
        "details": "See {IERC20-allowance}."
      },
      "approve(address,uint256)": {
        "details": "See {IERC20-approve}. NOTE: If `amount` is the maximum `uint256`, the allowance is not updated on `transferFrom`. This is semantically equivalent to an infinite approval. Requirements: - `spender` cannot be the zero address."
      },
      "balanceOf(address)": {
        "details": "See {IERC20-balanceOf}."
      },
      "decimals()": {
        "details": "Returns the number of decimals used to get its user representation. For example, if `decimals` equals `2`, a balance of `505` tokens should be displayed to a user as `5.05` (`505 / 10 ** 2`). Tokens usually opt for a value of 18, imitating the relationship between Ether and Wei. This is the value {ERC20} uses, unless this function is overridden; NOTE: This information is only used for _display_ purposes: it in no way affects any of the arithmetic of the contract, including {IERC20-balanceOf} and {IERC20-transfer}."
      },
      "decreaseAllowance(address,uint256)": {
        "details": "Atomically decreases the allowance granted to `spender` by the caller. This is an alternative to {approve} that can be used as a mitigation for problems described in {IERC20-approve}. Emits an {Approval} event indicating the updated allowance. Requirements: - `spender` cannot be the zero address. - `spender` must have allowance for the caller of at least `subtractedValue`."
      },
      "increaseAllowance(address,uint256)": {
        "details": "Atomically increases the allowance granted to `spender` by the caller. This is an alternative to {approve} that can be used as a mitigation for problems described in {IERC20-approve}. Emits an {Approval} event indicating the updated allowance. Requirements: - `spender` cannot be the zero address."
      },
      "name()": {
        "details": "Returns the name of the token."
      },
      "owner()": {
        "details": "Returns the address of the current owner."
      },
      "renounceOwnership()": {
        "details": "Leaves the contract without owner. It will not be possible to call `onlyOwner` functions anymore. Can only be called by the current owner. NOTE: Renouncing ownership will leave the contract without an owner, thereby removing any functionality that is only available to the owner."
      },
      "symbol()": {
        "details": "Returns the symbol of the token, usually a shorter version of the name."
      },
      "totalSupply()": {
        "details": "See {IERC20-totalSupply}."
      },
      "transfer(address,uint256)": {
        "details": "See {IERC20-transfer}. Requirements: - `to` cannot be the zero address. - the caller must have a balance of at least `amount`."
      },
      "transferFrom(address,address,uint256)": {
        "details": "See {IERC20-transferFrom}. Emits an {Approval} event indicating the updated allowance. This is not required by the EIP. See the note at the beginning of {ERC20}. NOTE: Does not update the allowance if the current allowance is the maximum `uint256`. Requirements: - `from` and `to` cannot be the zero address. - `from` must have a balance of at least `amount`. - the caller must have allowance for ``from``'s tokens of at least `amount`."
      },
      "transferOwnership(address)": {
        "details": "Transfers ownership of the contract to a new account (`newOwner`). Can only be called by the current owner."
      }
    },
    "version": 1
  },
  "userdoc": {
    "kind": "user",
    "methods": {},
    "version": 1
  }
}